{"abi":[{"type":"constructor","inputs":[{"name":"burnerRouterImplementation","type":"address","internalType":"address"}],"stateMutability":"nonpayable"},{"type":"function","name":"create","inputs":[{"name":"params","type":"tuple","internalType":"struct IBurnerRouter.InitParams","components":[{"name":"owner","type":"address","internalType":"address"},{"name":"collateral","type":"address","internalType":"address"},{"name":"delay","type":"uint48","internalType":"uint48"},{"name":"globalReceiver","type":"address","internalType":"address"},{"name":"networkReceivers","type":"tuple[]","internalType":"struct IBurnerRouter.NetworkReceiver[]","components":[{"name":"network","type":"address","internalType":"address"},{"name":"receiver","type":"address","internalType":"address"}]},{"name":"operatorNetworkReceivers","type":"tuple[]","internalType":"struct IBurnerRouter.OperatorNetworkReceiver[]","components":[{"name":"network","type":"address","internalType":"address"},{"name":"operator","type":"address","internalType":"address"},{"name":"receiver","type":"address","internalType":"address"}]}]}],"outputs":[{"name":"","type":"address","internalType":"address"}],"stateMutability":"nonpayable"},{"type":"function","name":"entity","inputs":[{"name":"index","type":"uint256","internalType":"uint256"}],"outputs":[{"name":"","type":"address","internalType":"address"}],"stateMutability":"view"},{"type":"function","name":"isEntity","inputs":[{"name":"entity_","type":"address","internalType":"address"}],"outputs":[{"name":"","type":"bool","internalType":"bool"}],"stateMutability":"view"},{"type":"function","name":"totalEntities","inputs":[],"outputs":[{"name":"","type":"uint256","internalType":"uint256"}],"stateMutability":"view"},{"type":"event","name":"AddEntity","inputs":[{"name":"entity","type":"address","indexed":true,"internalType":"address"}],"anonymous":false},{"type":"error","name":"ERC1167FailedCreateClone","inputs":[]},{"type":"error","name":"EntityNotExist","inputs":[]}],"bytecode":{"object":"0x60a034606657601f6105eb38819003918201601f19168301916001600160401b03831184841017606a57808492602094604052833981010312606657516001600160a01b038116810360665760805260405161056c908161007f8239608051816101150152f35b5f80fd5b634e487b7160e01b5f52604160045260245ffdfe6080604081815260049182361015610015575f80fd5b5f905f3560e01c90816314887c58146102bf575080633c4a80c8146100dc5780635cd8b15e146100bb5763b42ba2a21461004d575f80fd5b346100b85760203660031901126100b8575081355f548110156100a5575f80527f290decd9548b62a8d60345a988386fc84ba6bc95484008f6362f93160ef3e563015490516001600160a01b03909116815260209150f35b603283634e487b7160e01b5f525260245ffd5b80fd5b5090346100d857816003193601126100d857602091549051908152f35b5080fd5b50823461029a576003199060203683011261029a57803567ffffffffffffffff9283821161029a5760c090828401923603011261029a577f0000000000000000000000000000000000000000000000000000000000000000925f549386519460208601908152878087015285610155606082018661030d565b03601f80199182810189520116860195808710848811176102ac57906e5af43d82803e903d91602b57fd5bf391878a5251902091763d602d80600a3d3981f3363d3d373d3d3d363d7300000062ffffff8260881c16175f5260781b1760205260018060a01b0390603760095ff51693841561029e5750833b1561029a575f6101f7928751809481926342f929df60e01b8352602088840152602483019061030d565b038183885af1801561029057610242575b505050807fb919910dcefbf753bfd926ab3b1d3f85d877190c3d01ba1bd585047b99b99f0b6020946102398361049b565b50519380a28152f35b9080929594501161027d57602093508252807fb919910dcefbf753bfd926ab3b1d3f85d877190c3d01ba1bd585047b99b99f0b5f9394610208565b604184634e487b7160e01b5f525260245ffd5b86513d5f823e3d90fd5b5f80fd5b6330be1a3d60e21b81528390fd5b604186634e487b7160e01b5f525260245ffd5b8390853461029a57602036600319011261029a57356001600160a01b038116929083900361029a576020925f52600183525f205415158152f35b35906001600160a01b038216820361029a57565b6001600160a01b03929160c08101919084610327836102f9565b168152602094806103398785016102f9565b168683015260408084013565ffffffffffff811680910361029a578184015260609282610368606087016102f9565b16606082015236859003601e19019460808101358681121561029a5781019589873597019667ffffffffffffffff9889821161029a578160061b3603891361029a57819060c060808701525260e0840197905f5b8c828210610469575050505060a08201359081121561029a570194888635960196861161029a57606086023603871361029a578160a08a98999a93839897969598039101528481520195935f915b84831061041b575050505050505090565b90919293949597968480600192846104328b6102f9565b168152846104418d8c016102f9565b168c82015284610452878c016102f9565b1681870152999a990198970195949301919061040a565b87849b828b61048b8495898361048260019a9b9c6102f9565b168652016102f9565b1690820152019a019291016103bc565b805f52600160205260405f2054155f14610531575f546801000000000000000081101561051d5760018101805f558110156105095781907f290decd9548b62a8d60345a988386fc84ba6bc95484008f6362f93160ef3e56301555f54905f52600160205260405f2055600190565b634e487b7160e01b5f52603260045260245ffd5b634e487b7160e01b5f52604160045260245ffd5b505f9056fea2646970667358221220dfa36b21d652cbb6e45eb762c3a7731248bc8f4c87340a53451abb4831e1411b64736f6c63430008190033","linkReferences":{}},"methodIdentifiers":{"create((address,address,uint48,address,(address,address)[],(address,address,address)[]))":"3c4a80c8","entity(uint256)":"b42ba2a2","isEntity(address)":"14887c58","totalEntities()":"5cd8b15e"},"id":141}