{"abi":[{"type":"constructor","inputs":[{"name":"collateral","type":"address","internalType":"address"}],"stateMutability":"nonpayable"},{"type":"receive","stateMutability":"payable"},{"type":"function","name":"COLLATERAL","inputs":[],"outputs":[{"name":"","type":"address","internalType":"address"}],"stateMutability":"view"},{"type":"function","name":"STAKING","inputs":[],"outputs":[{"name":"","type":"address","internalType":"address"}],"stateMutability":"view"},{"type":"function","name":"requestIds","inputs":[{"name":"index","type":"uint256","internalType":"uint256"},{"name":"maxRequestIds","type":"uint256","internalType":"uint256"}],"outputs":[{"name":"requestIds_","type":"uint256[]","internalType":"uint256[]"}],"stateMutability":"view"},{"type":"function","name":"requestIdsLength","inputs":[],"outputs":[{"name":"","type":"uint256","internalType":"uint256"}],"stateMutability":"view"},{"type":"function","name":"triggerBurn","inputs":[{"name":"requestId","type":"uint256","internalType":"uint256"}],"outputs":[],"stateMutability":"nonpayable"},{"type":"function","name":"triggerWithdrawal","inputs":[],"outputs":[{"name":"requestId","type":"uint256","internalType":"uint256"}],"stateMutability":"nonpayable"},{"type":"event","name":"TriggerBurn","inputs":[{"name":"caller","type":"address","indexed":true,"internalType":"address"},{"name":"requestId","type":"uint256","indexed":false,"internalType":"uint256"}],"anonymous":false},{"type":"event","name":"TriggerWithdrawal","inputs":[{"name":"caller","type":"address","indexed":true,"internalType":"address"},{"name":"requestId","type":"uint256","indexed":false,"internalType":"uint256"}],"anonymous":false},{"type":"error","name":"InvalidRequestId","inputs":[]}],"bytecode":{"object":"0x60c0604090808252346101025761002c9061095780380380916100228285610152565b8339810190610189565b60808190528151633ba6481760e21b8152906020906001600160a01b039082908490600490829085165afa928315610148575f93610117575b5060a0839052608051845163095ea7b360e01b815293821660048501525f1960248501528291849160449183915f91165af1801561010d576100d6575b82516107ae90816101a9823960805181818161025601526103fa015260a0518181816085015281816102ac015261042e0152f35b81813d8311610106575b6100ea8183610152565b81010312610102575180151503610102575f806100a2565b5f80fd5b503d6100e0565b83513d5f823e3d90fd5b8291935061013a90823d8411610141575b6101328183610152565b810190610189565b9290610065565b503d610128565b84513d5f823e3d90fd5b601f909101601f19168101906001600160401b0382119082101761017557604052565b634e487b7160e01b5f52604160045260245ffd5b9081602091031261010257516001600160a01b0381168103610102579056fe6080604081815260049182361015610021575b505050361561001f575f80fd5b005b5f925f3560e01c918263041e0185146103c7575081630bc8cbcf1461028557816324bbab8b146102415781634383ee3d146100d45750806345a67f51146100b8576397610f30146100725780610012565b346100b457816003193601126100b457517f00000000000000000000000000000000000000000000000000000000000000006001600160a01b03168152602090f35b5080fd5b50346100b457816003193601126100b457602091549051908152f35b9050823461023e578260031936011261023e5781359060249082602435810180821161022b578254808210156102235750905b810390811161021057909194939261011e826105db565b9161012b865193846105a5565b808352610137816105db565b6020978489019691601f19013688375f54865b8481106101925750505050505083519485948186019282875251809352850193925b82811061017b57505050500390f35b83518552869550938101939281019260010161016c565b81869b9897999a9b10156101fe575f8052857f290decd9548b62a8d60345a988386fc84ba6bc95484008f6362f93160ef3e563015489518210156101ec57888260051b8b010152600180910195019499989795969961014a565b634e487b7160e01b8852603285528388fd5b82603285634e487b7160e01b5f52525ffd5b601185634e487b7160e01b5f525260245ffd5b905090610107565b634e487b7160e01b835260118652602483fd5b80fd5b5050346100b457816003193601126100b457517f00000000000000000000000000000000000000000000000000000000000000006001600160a01b03168152602090f35b919050346103b55760203660031901126103b5578135916102a5836106a5565b156103b9577f00000000000000000000000000000000000000000000000000000000000000006001600160a01b0316803b156103b5575f809160248551809481936302bf676560e41b835289888401525af180156103ab5761037c575b508151479160038083019167ffffffffffffffff831184841017610369575090829161077683390391f01561035e57519081527f4ee9ebe815db7e3e7645cd8bd4d663bf6b60b8505a4dd52fcf38aaef8b6d988460203392a280f35b51913d9150823e3d90fd5b634e487b7160e01b885260419052602487fd5b90935067ffffffffffffffff81116103985781525f925f610302565b604184634e487b7160e01b5f525260245ffd5b83513d5f823e3d90fd5b5f80fd5b90516302e8145360e61b8152fd5b9083346103b5575f3660031901126103b5576370a0823160e01b835230828401526020926001600160a01b0384826024817f000000000000000000000000000000000000000000000000000000000000000085165afa9182156103ab575f92610576575b507f000000000000000000000000000000000000000000000000000000000000000016906fffffffffffffffffffffffffffffffff918351631624304760e21b815282868201528681602481855afa90811561056c579087949392915f91610536575b5060449291845f928851998a97889663448f7a1f60e11b885216908601521660248401525af191821561052c575f926104fd575b506104cc8261063a565b5080518281527f262b8826d3cce07380cc79eea8c1390c2680f3cc26276b7aecaed4868164cb45843392a251908152f35b9091508281813d8311610525575b61051581836105a5565b810103126103b5575190836104c2565b503d61050b565b50513d5f823e3d90fd5b85819692509392933d8311610565575b61055081836105a5565b810103126103b557925186939190604461048e565b503d610546565b85513d5f823e3d90fd5b9091508481813d831161059e575b61058e81836105a5565b810103126103b55751908561042b565b503d610584565b90601f8019910116810190811067ffffffffffffffff8211176105c757604052565b634e487b7160e01b5f52604160045260245ffd5b67ffffffffffffffff81116105c75760051b60200190565b5f54811015610626575f80527f290decd9548b62a8d60345a988386fc84ba6bc95484008f6362f93160ef3e56301905f90565b634e487b7160e01b5f52603260045260245ffd5b805f52600160205260405f2054155f146106a0575f54680100000000000000008110156105c75761068a6106748260018594015f556105f3565b819391549060031b91821b915f19901b19161790565b90555f54905f52600160205260405f2055600190565b505f90565b5f81815260016020526040902054801561076f575f199080820181811161075b575f549083820191821161075b57818103610727575b5050505f548015610713578101906106f2826105f3565b909182549160031b1b191690555f555f5260016020525f6040812055600190565b634e487b7160e01b5f52603160045260245ffd5b610745610736610674936105f3565b90549060031b1c9283926105f3565b90555f52600160205260405f20555f80806106db565b634e487b7160e01b5f52601160045260245ffd5b50505f9056fe30fffea26469706673582212202f310ab899d6164ace47c2e881c63b3b4ebfedc7ee2284482a757ca7802f939c64736f6c63430008190033","linkReferences":{}},"methodIdentifiers":{"COLLATERAL()":"24bbab8b","STAKING()":"97610f30","requestIds(uint256,uint256)":"4383ee3d","requestIdsLength()":"45a67f51","triggerBurn(uint256)":"0bc8cbcf","triggerWithdrawal()":"041e0185"},"id":130}