{"abi":[{"type":"constructor","inputs":[{"name":"collateral","type":"address","internalType":"address"},{"name":"swEXIT","type":"address","internalType":"address"}],"stateMutability":"nonpayable"},{"type":"receive","stateMutability":"payable"},{"type":"function","name":"COLLATERAL","inputs":[],"outputs":[{"name":"","type":"address","internalType":"address"}],"stateMutability":"view"},{"type":"function","name":"SWEXIT","inputs":[],"outputs":[{"name":"","type":"address","internalType":"address"}],"stateMutability":"view"},{"type":"function","name":"onERC721Received","inputs":[{"name":"","type":"address","internalType":"address"},{"name":"","type":"address","internalType":"address"},{"name":"","type":"uint256","internalType":"uint256"},{"name":"","type":"bytes","internalType":"bytes"}],"outputs":[{"name":"","type":"bytes4","internalType":"bytes4"}],"stateMutability":"nonpayable"},{"type":"function","name":"requestIds","inputs":[{"name":"index","type":"uint256","internalType":"uint256"},{"name":"maxRequestIds","type":"uint256","internalType":"uint256"}],"outputs":[{"name":"requestIds_","type":"uint256[]","internalType":"uint256[]"}],"stateMutability":"view"},{"type":"function","name":"requestIdsLength","inputs":[],"outputs":[{"name":"","type":"uint256","internalType":"uint256"}],"stateMutability":"view"},{"type":"function","name":"triggerBurn","inputs":[{"name":"requestId","type":"uint256","internalType":"uint256"}],"outputs":[],"stateMutability":"nonpayable"},{"type":"function","name":"triggerWithdrawal","inputs":[{"name":"maxRequests","type":"uint256","internalType":"uint256"}],"outputs":[{"name":"firstRequestId","type":"uint256","internalType":"uint256"},{"name":"lastRequestId","type":"uint256","internalType":"uint256"}],"stateMutability":"nonpayable"},{"type":"event","name":"TriggerBurn","inputs":[{"name":"caller","type":"address","indexed":true,"internalType":"address"},{"name":"requestId","type":"uint256","indexed":false,"internalType":"uint256"}],"anonymous":false},{"type":"event","name":"TriggerWithdrawal","inputs":[{"name":"caller","type":"address","indexed":true,"internalType":"address"},{"name":"firstRequestId","type":"uint256","indexed":false,"internalType":"uint256"},{"name":"lastRequestId","type":"uint256","indexed":false,"internalType":"uint256"}],"anonymous":false},{"type":"error","name":"InsufficientWithdrawal","inputs":[]},{"type":"error","name":"InvalidRequestId","inputs":[]}],"bytecode":{"object":"0x60c080604052346100e957604081610b53803803809161001f8285610100565b8339810103126100e957602061003f8161003884610137565b9301610137565b608083905260a081905260405163095ea7b360e01b81526001600160a01b0391821660048201525f19602482015292839160449183915f91165af180156100f5576100b9575b604051610a07908161014c823960805181818160b001526105c2015260a05181818160e40152818161068001526106d50152f35b6020813d6020116100ed575b816100d260209383610100565b810103126100e95751801515036100e9575f610085565b5f80fd5b3d91506100c5565b6040513d5f823e3d90fd5b601f909101601f19168101906001600160401b0382119082101761012357604052565b634e487b7160e01b5f52604160045260245ffd5b51906001600160a01b03821682036100e95756fe60406080815260048036101561001e575b5050361561001c575f80fd5b005b5f905f3560e01c80630bc8cbcf146106af578063127ed5591461066b578063150b7a02146105f157806324bbab8b146105ad5780634383ee3d1461046657806345a67f5114610449576392284cb6146100775750610010565b34610445576020806003193601126104415783516370a0823160e01b8152308184015282359390926024906001600160a01b03848684817f000000000000000000000000000000000000000000000000000000000000000085165afa958615610437578496610408575b507f0000000000000000000000000000000000000000000000000000000000000000169187519663ef8526f360e01b885285888481875afa9788156103fe5785986103cf575b508851633c1276c960e21b81529086828581885afa9182156103365786926103a0575b50881561038e5788880491898906101561036a575b808210156103625750965b8715610352575f19880197881161034057885163061a499f60e01b81529786898581885afa988915610336578699610303575b5060019760018a01809a11610287576101b6828b61081a565b988a5b8a8110610299576101ca9150610979565b508282029180830484149015171561028757906101e69161083b565b908082101561027f5750915b833b1561027b5790849291838a519586948593633a6e4e8d60e11b85528401525af180156102715761025a575b5050835183815282828201527f2af9b173527ef5f4bc3130bac428abdaf7646958117405d702f2d49774b79c12853392a28351928352820152f35b61026482916107d0565b61026e578061021f565b80fd5b86513d84823e3d90fd5b8480fd5b9050916101f2565b634e487b7160e01b8752601185528387fd5b6102a281610979565b50873b156102f5578c51633a6e4e8d60e11b815287810186905289818881838d5af180156102f9578392918b916102dc575b5050016101b9565b6102e8919293506107d0565b6102f5578190895f6102d4565b8880fd5b8e513d8c823e3d90fd5b9098508681813d831161032f575b61031b81836107f8565b8101031261032b5751975f61019d565b5f80fd5b503d610311565b8a513d88823e3d90fd5b50634e487b7160e01b84526011825283fd5b8851636c6c627d60e11b81528390fd5b90509661016a565b906001810180911161037c579061015f565b634e487b7160e01b8652601184528286fd5b634e487b7160e01b8652601284528286fd5b9091508681813d83116103c8575b6103b881836107f8565b8101031261032b5751905f61014a565b503d6103ae565b9097508581813d83116103f7575b6103e781836107f8565b8101031261032b5751965f610127565b503d6103dd565b89513d87823e3d90fd5b9095508481813d8311610430575b61042081836107f8565b8101031261032b5751945f6100e1565b503d610416565b88513d86823e3d90fd5b8280fd5b5080fd5b828434610445578160031936011261044557602091549051908152f35b50903461026e578260031936011261026e578135906024906104a48361048e6024358261081a565b8354808210156105a0575096959492939661083b565b906104ae82610848565b916104bb865193846107f8565b8083526104c781610848565b6020978489019691601f19013688375f54865b8481106105225750505050505083519485948186019282875251809352850193925b82811061050b57505050500390f35b8351855286955093810193928101926001016104fc565b81869b9897999a9b101561058e575f8052857f290decd9548b62a8d60345a988386fc84ba6bc95484008f6362f93160ef3e5630154895182101561057c57888260051b8b01015260018091019501949998979596996104da565b634e487b7160e01b8852603285528388fd5b82603285634e487b7160e01b5f52525ffd5b905096959492939661083b565b828434610445578160031936011261044557517f00000000000000000000000000000000000000000000000000000000000000006001600160a01b03168152602090f35b50829034610441576080366003190112610441576001600160a01b0381358181160361032b576024359081160361032b576064359067ffffffffffffffff9081831161027b573660238401121561027b5782013590811161066757369101602401116104455751630a85bd0160e11b8152602090f35b8380fd5b828434610445578160031936011261044557517f00000000000000000000000000000000000000000000000000000000000000006001600160a01b03168152602090f35b50823461032b57602036600319011261032b578135916106ce836108a7565b156107c2577f00000000000000000000000000000000000000000000000000000000000000006001600160a01b0316803b1561032b575f80916024855180948193635e15c74960e01b835289888401525af180156107b8576107a5575b508151479160038083019167ffffffffffffffff83118484101761079257509082916109cf83390391f01561078757519081527f4ee9ebe815db7e3e7645cd8bd4d663bf6b60b8505a4dd52fcf38aaef8b6d988460203392a280f35b51913d9150823e3d90fd5b634e487b7160e01b885260419052602487fd5b6107b09194506107d0565b5f928461072b565b83513d5f823e3d90fd5b90516302e8145360e61b8152fd5b67ffffffffffffffff81116107e457604052565b634e487b7160e01b5f52604160045260245ffd5b90601f8019910116810190811067ffffffffffffffff8211176107e457604052565b9190820180921161082757565b634e487b7160e01b5f52601160045260245ffd5b9190820391821161082757565b67ffffffffffffffff81116107e45760051b60200190565b5f54811015610893575f80527f290decd9548b62a8d60345a988386fc84ba6bc95484008f6362f93160ef3e56301905f90565b634e487b7160e01b5f52603260045260245ffd5b5f818152600160205260409020548015610973575f1990808201818111610827575f549083820191821161082757818103610929575b5050505f548015610915578101906108f482610860565b909182549160031b1b191690555f555f5260016020525f6040812055600190565b634e487b7160e01b5f52603160045260245ffd5b61095d61093861094793610860565b90549060031b1c928392610860565b819391549060031b91821b915f19901b19161790565b90555f52600160205260405f20555f80806108dd565b50505f90565b805f52600160205260405f2054155f146109c9575f54680100000000000000008110156107e4576109b36109478260018594015f55610860565b90555f54905f52600160205260405f2055600190565b505f9056fe30fffea2646970667358221220ae2a44ae8fbd28aff7598d498b4e0c15467120db711efb1fb8218e8d7519144e64736f6c63430008190033","linkReferences":{}},"methodIdentifiers":{"COLLATERAL()":"24bbab8b","SWEXIT()":"127ed559","onERC721Received(address,address,uint256,bytes)":"150b7a02","requestIds(uint256,uint256)":"4383ee3d","requestIdsLength()":"45a67f51","triggerBurn(uint256)":"0bc8cbcf","triggerWithdrawal(uint256)":"92284cb6"},"id":135}