{"abi":[{"type":"function","name":"requestIds","inputs":[{"name":"index","type":"uint256","internalType":"uint256"},{"name":"maxRequestIds","type":"uint256","internalType":"uint256"}],"outputs":[{"name":"requestIds_","type":"uint256[]","internalType":"uint256[]"}],"stateMutability":"view"},{"type":"function","name":"requestIdsLength","inputs":[],"outputs":[{"name":"","type":"uint256","internalType":"uint256"}],"stateMutability":"view"},{"type":"error","name":"InvalidRequestId","inputs":[]}],"bytecode":{"object":"0x6080806040523460155761022f908161001a8239f35b5f80fdfe604060808152600480361015610013575f80fd5b5f3560e01c9081634383ee3d1461005357506345a67f5114610033575f80fd5b3461004f575f36600319011261004f576020905f549051908152f35b5f80fd5b90503461004f578160031936011261004f5780356024908082358201938483116101b3575f5494858110156101c557925b83039283116101b35790829161009b601f946101cd565b9487519585199586910116860186811067ffffffffffffffff8211176101a05788979698949394528288526100cf836101cd565b95602095868a0197013688375f5b8481106101265750505050505082519384938285019183865251809252840192915f5b82811061010f57505050500390f35b835185528695509381019392810192600101610100565b81869a98999a101561018e575f8052857f290decd9548b62a8d60345a988386fc84ba6bc95484008f6362f93160ef3e5630154885182101561017c57878260051b8a0101526001809101950194989796986100dd565b83603286634e487b7160e01b5f52525ffd5b82603285634e487b7160e01b5f52525ffd5b50634e487b7160e01b5f90815260418352fd5b60118491634e487b7160e01b5f52525ffd5b508492610084565b67ffffffffffffffff81116101e55760051b60200190565b634e487b7160e01b5f52604160045260245ffdfea26469706673582212200dbd725fde4cbd128d6abcde4e3da11694589ffbf3eefcca43df4f447c7ca83a64736f6c63430008190033","linkReferences":{}},"methodIdentifiers":{"requestIds(uint256,uint256)":"4383ee3d","requestIdsLength()":"45a67f51"},"id":139}