{"abi":[{"type":"constructor","inputs":[{"name":"collateral","type":"address","internalType":"address"},{"name":"staderConfig","type":"address","internalType":"address"}],"stateMutability":"nonpayable"},{"type":"receive","stateMutability":"payable"},{"type":"function","name":"COLLATERAL","inputs":[],"outputs":[{"name":"","type":"address","internalType":"address"}],"stateMutability":"view"},{"type":"function","name":"STADER_CONFIG","inputs":[],"outputs":[{"name":"","type":"address","internalType":"address"}],"stateMutability":"view"},{"type":"function","name":"STAKE_POOLS_MANAGER","inputs":[],"outputs":[{"name":"","type":"address","internalType":"address"}],"stateMutability":"view"},{"type":"function","name":"USER_WITHDRAW_MANAGER","inputs":[],"outputs":[{"name":"","type":"address","internalType":"address"}],"stateMutability":"view"},{"type":"function","name":"multicall","inputs":[{"name":"data","type":"bytes[]","internalType":"bytes[]"}],"outputs":[{"name":"results","type":"bytes[]","internalType":"bytes[]"}],"stateMutability":"nonpayable"},{"type":"function","name":"requestIds","inputs":[{"name":"index","type":"uint256","internalType":"uint256"},{"name":"maxRequestIds","type":"uint256","internalType":"uint256"}],"outputs":[{"name":"requestIds_","type":"uint256[]","internalType":"uint256[]"}],"stateMutability":"view"},{"type":"function","name":"requestIdsLength","inputs":[],"outputs":[{"name":"","type":"uint256","internalType":"uint256"}],"stateMutability":"view"},{"type":"function","name":"triggerBurn","inputs":[{"name":"requestId","type":"uint256","internalType":"uint256"}],"outputs":[],"stateMutability":"nonpayable"},{"type":"function","name":"triggerWithdrawal","inputs":[{"name":"maxWithdrawalAmount","type":"uint256","internalType":"uint256"}],"outputs":[{"name":"requestId","type":"uint256","internalType":"uint256"}],"stateMutability":"nonpayable"},{"type":"event","name":"TriggerBurn","inputs":[{"name":"caller","type":"address","indexed":true,"internalType":"address"},{"name":"requestId","type":"uint256","indexed":false,"internalType":"uint256"}],"anonymous":false},{"type":"event","name":"TriggerWithdrawal","inputs":[{"name":"caller","type":"address","indexed":true,"internalType":"address"},{"name":"requestId","type":"uint256","indexed":false,"internalType":"uint256"}],"anonymous":false},{"type":"error","name":"AddressEmptyCode","inputs":[{"name":"target","type":"address","internalType":"address"}]},{"type":"error","name":"FailedInnerCall","inputs":[]},{"type":"error","name":"InvalidETHxMaximumWithdrawal","inputs":[]},{"type":"error","name":"InvalidRequestId","inputs":[]}],"bytecode":{"object":"0x6101006040908082523461016b578181610e64803803809161002182856101f9565b83398101031261016b578061003861004492610230565b60209283809301610230565b60809190915260a08190528351631d9e2e1560e31b81526001600160a01b039390918290600490829087165afa9081156101ba575f916101c4575b5060c0526004818360a051168551928380926305d8bc0360e31b82525afa9081156101ba575f91610180575b5060e05260805160c051845163095ea7b360e01b815290841660048201525f196024820152928291849160449183915f91165af180156101765761013f575b8251610c1f908161024582396080518181816103e30152610838015260a0518181816103310152610655015260c051818181610448015281816107f30152610888015260e05181818161037c01526109980152f35b81813d831161016f575b61015381836101f9565b8101031261016b57518015150361016b575f806100ea565b5f80fd5b503d610149565b83513d5f823e3d90fd5b90508181813d83116101b3575b61019781836101f9565b8101031261016b575f926101ab8392610230565b9150926100ab565b503d61018d565b84513d5f823e3d90fd5b90508181813d83116101f2575b6101db81836101f9565b8101031261016b576101ec90610230565b5f61007f565b503d6101d1565b601f909101601f19168101906001600160401b0382119082101761021c57604052565b634e487b7160e01b5f52604160045260245ffd5b51906001600160a01b038216820361016b5756fe608080604052600436101561001c575b50361561001a575f80fd5b005b5f905f3560e01c90816305f4d08a14610986575080630bc8cbcf1461086757806324bbab8b1461082257806336854d63146107dd5780634383ee3d146106a157806345a67f51146106845780636c50e8b71461063f57806392284cb6146102fa5763ac9650d80361000f57346102f75760203660031901126102f75767ffffffffffffffff600435116102f7573660236004350112156102f75767ffffffffffffffff60043560040135116102f7573660246004356004013560051b6004350101116102f75760405180602081011067ffffffffffffffff6020830111176102c05760208101604052818152610117600435600401356109e9565b9061012560405192836109c7565b600480350135808352610137906109e9565b601f1901835b8181106102e6575050825b6004356004013581106101d4578284604051918291602083016020845282518091526040840191602060408360051b870101940192815b83831061018c5786860387f35b91939550919360208080600193603f198b8203018752818a518051918291828552018484015e86838284010152601f801991011601019701930193019092869594929361017f565b8360248260051b6004350101356042196004353603018112156102e2576004350167ffffffffffffffff6024820135116102e2576024810135360360448201136102e25781906040516102586020826024828201958181013560448201883701358101828101908782528a518092858d01905e0186838201520380845201826109c7565b5190305af4903d156102d4573d9167ffffffffffffffff83116102c0576040516001936102a49290610294601f8201601f1916602001846109c7565b82523d88602084013e5b30610b2e565b6102ae8286610a01565b526102b98185610a01565b5001610148565b634e487b7160e01b5f52604160045260245ffd5b6102a460019260609061029e565b5080fd5b80606060208093870101520161013d565b80fd5b50346102f757602090816003193601126102f75760405163326a16a360e01b81526001600160a01b039060048035919085908290817f000000000000000000000000000000000000000000000000000000000000000087165afa90811561052e578491610612575b50604051630a28a47760e01b8082526004820184905291907f00000000000000000000000000000000000000000000000000000000000000008516908781602481855afa9081156106075790839188916105d6575b501192831561054b575b505050610539576040516370a0823160e01b81523060048201529084826024817f000000000000000000000000000000000000000000000000000000000000000087165afa91821561052e5791849391869385926104f9575b5060449190808210156104f257505b6040519485938492631998287760e31b845260048401523060248401527f0000000000000000000000000000000000000000000000000000000000000000165af19182156104e657916104b5575b5061048181610b91565b506040518181527f262b8826d3cce07380cc79eea8c1390c2680f3cc26276b7aecaed4868164cb45833392a2604051908152f35b90508181813d83116104df575b6104cc81836109c7565b810103126104db57515f610477565b5f80fd5b503d6104c2565b604051903d90823e3d90fd5b9050610429565b945092905083813d8311610527575b61051281836109c7565b810103126104db57604485928594519161041a565b503d610508565b6040513d86823e3d90fd5b6040516307905fcb60e01b8152600490fd5b9091925060018401908185116105c25790602488926040519485938492835260048301525afa9081156105b757859161058a575b5011155f80806103c1565b90508581813d83116105b0575b6105a181836109c7565b810103126104db57515f61057f565b503d610597565b6040513d87823e3d90fd5b634e487b7160e01b87526011600452602487fd5b809250898092503d8311610600575b6105ef81836109c7565b810103126104db578290515f6103b7565b503d6105e5565b6040513d89823e3d90fd5b90508481813d8311610638575b61062981836109c7565b810103126104db57515f610362565b503d61061f565b50346102f757806003193601126102f7576040517f00000000000000000000000000000000000000000000000000000000000000006001600160a01b03168152602090f35b50346102f757806003193601126102f75760209054604051908152f35b50346102f75760403660031901126102f757600435806024803582018083116107c1578454808210156107d55750915b82039182116107c15791926106e5826109e9565b936106f360405195866109c7565b8285526106ff836109e9565b6020948686019491601f19013686375f54845b83811061075e575050505050604051938493602085019160208652518092526040850193925b82811061074757505050500390f35b835185528695509381019392810192600101610738565b8185999798969910156107ae575f8052847f290decd9548b62a8d60345a988386fc84ba6bc95484008f6362f93160ef3e563015461079c8289610a01565b52959794969560019485019401610712565b82634e487b7160e01b5f5260326004525ffd5b634e487b7160e01b5f52601160045260245ffd5b9050916106d1565b50346102f757806003193601126102f7576040517f00000000000000000000000000000000000000000000000000000000000000006001600160a01b03168152602090f35b50346102f757806003193601126102f7576040517f00000000000000000000000000000000000000000000000000000000000000006001600160a01b03168152602090f35b50346104db5760203660031901126104db5760043561088581610a5c565b507f00000000000000000000000000000000000000000000000000000000000000006001600160a01b0316803b156104db575f809160246040518094819363379607f560e01b83528760048401525af1801561097b5761095e575b504760405160038082019082821067ffffffffffffffff83111761094a57908291610be783390391f01561093d576040519081527f4ee9ebe815db7e3e7645cd8bd4d663bf6b60b8505a4dd52fcf38aaef8b6d988460203392a280f35b50604051903d90823e3d90fd5b634e487b7160e01b86526041600452602486fd5b90915067ffffffffffffffff81116102c0576040525f905f6108e0565b6040513d5f823e3d90fd5b346104db575f3660031901126104db577f00000000000000000000000000000000000000000000000000000000000000006001600160a01b03168152602090f35b90601f8019910116810190811067ffffffffffffffff8211176102c057604052565b67ffffffffffffffff81116102c05760051b60200190565b8051821015610a155760209160051b010190565b634e487b7160e01b5f52603260045260245ffd5b5f54811015610a15575f80527f290decd9548b62a8d60345a988386fc84ba6bc95484008f6362f93160ef3e56301905f90565b5f818152600160205260409020548015610b28575f19908082018181116107c1575f54908382019182116107c157818103610ade575b5050505f548015610aca57810190610aa982610a29565b909182549160031b1b191690555f555f5260016020525f6040812055600190565b634e487b7160e01b5f52603160045260245ffd5b610b12610aed610afc93610a29565b90549060031b1c928392610a29565b819391549060031b91821b915f19901b19161790565b90555f52600160205260405f20555f8080610a92565b50505f90565b90610b555750805115610b4357805190602001fd5b604051630a12f52160e11b8152600490fd5b81511580610b88575b610b66575090565b604051639996b31560e01b81526001600160a01b039091166004820152602490fd5b50803b15610b5e565b805f52600160205260405f2054155f14610be1575f54680100000000000000008110156102c057610bcb610afc8260018594015f55610a29565b90555f54905f52600160205260405f2055600190565b505f9056fe30fffea2646970667358221220cd37a81e7aecb86e39c4a829d64ee256bac66aa1535c6da59a805c3df326321264736f6c63430008190033","linkReferences":{}},"methodIdentifiers":{"COLLATERAL()":"24bbab8b","STADER_CONFIG()":"6c50e8b7","STAKE_POOLS_MANAGER()":"05f4d08a","USER_WITHDRAW_MANAGER()":"36854d63","multicall(bytes[])":"ac9650d8","requestIds(uint256,uint256)":"4383ee3d","requestIdsLength()":"45a67f51","triggerBurn(uint256)":"0bc8cbcf","triggerWithdrawal(uint256)":"92284cb6"},"id":129}