{"abi":[{"type":"constructor","inputs":[],"stateMutability":"nonpayable"},{"type":"function","name":"acceptDelay","inputs":[],"outputs":[],"stateMutability":"nonpayable"},{"type":"function","name":"acceptGlobalReceiver","inputs":[],"outputs":[],"stateMutability":"nonpayable"},{"type":"function","name":"acceptNetworkReceiver","inputs":[{"name":"network","type":"address","internalType":"address"}],"outputs":[],"stateMutability":"nonpayable"},{"type":"function","name":"acceptOperatorNetworkReceiver","inputs":[{"name":"network","type":"address","internalType":"address"},{"name":"operator","type":"address","internalType":"address"}],"outputs":[],"stateMutability":"nonpayable"},{"type":"function","name":"balanceOf","inputs":[{"name":"receiver","type":"address","internalType":"address"}],"outputs":[{"name":"amount","type":"uint256","internalType":"uint256"}],"stateMutability":"view"},{"type":"function","name":"collateral","inputs":[],"outputs":[{"name":"","type":"address","internalType":"address"}],"stateMutability":"view"},{"type":"function","name":"delay","inputs":[],"outputs":[{"name":"value","type":"uint48","internalType":"uint48"}],"stateMutability":"view"},{"type":"function","name":"globalReceiver","inputs":[],"outputs":[{"name":"value","type":"address","internalType":"address"}],"stateMutability":"view"},{"type":"function","name":"initialize","inputs":[{"name":"params","type":"tuple","internalType":"struct IBurnerRouter.InitParams","components":[{"name":"owner","type":"address","internalType":"address"},{"name":"collateral","type":"address","internalType":"address"},{"name":"delay","type":"uint48","internalType":"uint48"},{"name":"globalReceiver","type":"address","internalType":"address"},{"name":"networkReceivers","type":"tuple[]","internalType":"struct IBurnerRouter.NetworkReceiver[]","components":[{"name":"network","type":"address","internalType":"address"},{"name":"receiver","type":"address","internalType":"address"}]},{"name":"operatorNetworkReceivers","type":"tuple[]","internalType":"struct IBurnerRouter.OperatorNetworkReceiver[]","components":[{"name":"network","type":"address","internalType":"address"},{"name":"operator","type":"address","internalType":"address"},{"name":"receiver","type":"address","internalType":"address"}]}]}],"outputs":[],"stateMutability":"nonpayable"},{"type":"function","name":"lastBalance","inputs":[],"outputs":[{"name":"","type":"uint256","internalType":"uint256"}],"stateMutability":"view"},{"type":"function","name":"networkReceiver","inputs":[{"name":"network","type":"address","internalType":"address"}],"outputs":[{"name":"value","type":"address","internalType":"address"}],"stateMutability":"view"},{"type":"function","name":"onSlash","inputs":[{"name":"subnetwork","type":"bytes32","internalType":"bytes32"},{"name":"operator","type":"address","internalType":"address"},{"name":"","type":"uint256","internalType":"uint256"},{"name":"","type":"uint48","internalType":"uint48"}],"outputs":[],"stateMutability":"nonpayable"},{"type":"function","name":"operatorNetworkReceiver","inputs":[{"name":"network","type":"address","internalType":"address"},{"name":"operator","type":"address","internalType":"address"}],"outputs":[{"name":"value","type":"address","internalType":"address"}],"stateMutability":"view"},{"type":"function","name":"owner","inputs":[],"outputs":[{"name":"","type":"address","internalType":"address"}],"stateMutability":"view"},{"type":"function","name":"pendingDelay","inputs":[],"outputs":[{"name":"value","type":"uint48","internalType":"uint48"},{"name":"timestamp","type":"uint48","internalType":"uint48"}],"stateMutability":"view"},{"type":"function","name":"pendingGlobalReceiver","inputs":[],"outputs":[{"name":"value","type":"address","internalType":"address"},{"name":"timestamp","type":"uint48","internalType":"uint48"}],"stateMutability":"view"},{"type":"function","name":"pendingNetworkReceiver","inputs":[{"name":"network","type":"address","internalType":"address"}],"outputs":[{"name":"value","type":"address","internalType":"address"},{"name":"timestamp","type":"uint48","internalType":"uint48"}],"stateMutability":"view"},{"type":"function","name":"pendingOperatorNetworkReceiver","inputs":[{"name":"network","type":"address","internalType":"address"},{"name":"operator","type":"address","internalType":"address"}],"outputs":[{"name":"value","type":"address","internalType":"address"},{"name":"timestamp","type":"uint48","internalType":"uint48"}],"stateMutability":"view"},{"type":"function","name":"renounceOwnership","inputs":[],"outputs":[],"stateMutability":"nonpayable"},{"type":"function","name":"setDelay","inputs":[{"name":"newDelay","type":"uint48","internalType":"uint48"}],"outputs":[],"stateMutability":"nonpayable"},{"type":"function","name":"setGlobalReceiver","inputs":[{"name":"receiver","type":"address","internalType":"address"}],"outputs":[],"stateMutability":"nonpayable"},{"type":"function","name":"setNetworkReceiver","inputs":[{"name":"network","type":"address","internalType":"address"},{"name":"receiver","type":"address","internalType":"address"}],"outputs":[],"stateMutability":"nonpayable"},{"type":"function","name":"setOperatorNetworkReceiver","inputs":[{"name":"network","type":"address","internalType":"address"},{"name":"operator","type":"address","internalType":"address"},{"name":"receiver","type":"address","internalType":"address"}],"outputs":[],"stateMutability":"nonpayable"},{"type":"function","name":"transferOwnership","inputs":[{"name":"newOwner","type":"address","internalType":"address"}],"outputs":[],"stateMutability":"nonpayable"},{"type":"function","name":"triggerTransfer","inputs":[{"name":"receiver","type":"address","internalType":"address"}],"outputs":[{"name":"amount","type":"uint256","internalType":"uint256"}],"stateMutability":"nonpayable"},{"type":"event","name":"AcceptDelay","inputs":[],"anonymous":false},{"type":"event","name":"AcceptGlobalReceiver","inputs":[],"anonymous":false},{"type":"event","name":"AcceptNetworkReceiver","inputs":[{"name":"network","type":"address","indexed":true,"internalType":"address"}],"anonymous":false},{"type":"event","name":"AcceptOperatorNetworkReceiver","inputs":[{"name":"network","type":"address","indexed":true,"internalType":"address"},{"name":"operator","type":"address","indexed":true,"internalType":"address"}],"anonymous":false},{"type":"event","name":"Initialized","inputs":[{"name":"version","type":"uint64","indexed":false,"internalType":"uint64"}],"anonymous":false},{"type":"event","name":"OwnershipTransferred","inputs":[{"name":"previousOwner","type":"address","indexed":true,"internalType":"address"},{"name":"newOwner","type":"address","indexed":true,"internalType":"address"}],"anonymous":false},{"type":"event","name":"SetDelay","inputs":[{"name":"delay","type":"uint48","indexed":false,"internalType":"uint48"}],"anonymous":false},{"type":"event","name":"SetGlobalReceiver","inputs":[{"name":"receiver","type":"address","indexed":false,"internalType":"address"}],"anonymous":false},{"type":"event","name":"SetNetworkReceiver","inputs":[{"name":"network","type":"address","indexed":true,"internalType":"address"},{"name":"receiver","type":"address","indexed":false,"internalType":"address"}],"anonymous":false},{"type":"event","name":"SetOperatorNetworkReceiver","inputs":[{"name":"network","type":"address","indexed":true,"internalType":"address"},{"name":"operator","type":"address","indexed":true,"internalType":"address"},{"name":"receiver","type":"address","indexed":false,"internalType":"address"}],"anonymous":false},{"type":"event","name":"TriggerTransfer","inputs":[{"name":"receiver","type":"address","indexed":true,"internalType":"address"},{"name":"amount","type":"uint256","indexed":false,"internalType":"uint256"}],"anonymous":false},{"type":"error","name":"AddressEmptyCode","inputs":[{"name":"target","type":"address","internalType":"address"}]},{"type":"error","name":"AddressInsufficientBalance","inputs":[{"name":"account","type":"address","internalType":"address"}]},{"type":"error","name":"AlreadySet","inputs":[]},{"type":"error","name":"DuplicateNetworkReceiver","inputs":[]},{"type":"error","name":"DuplicateOperatorNetworkReceiver","inputs":[]},{"type":"error","name":"FailedInnerCall","inputs":[]},{"type":"error","name":"InsufficientBalance","inputs":[]},{"type":"error","name":"InvalidCollateral","inputs":[]},{"type":"error","name":"InvalidInitialization","inputs":[]},{"type":"error","name":"InvalidReceiver","inputs":[]},{"type":"error","name":"InvalidReceiverSetEpochsDelay","inputs":[]},{"type":"error","name":"NotInitializing","inputs":[]},{"type":"error","name":"NotReady","inputs":[]},{"type":"error","name":"OwnableInvalidOwner","inputs":[{"name":"owner","type":"address","internalType":"address"}]},{"type":"error","name":"OwnableUnauthorizedAccount","inputs":[{"name":"account","type":"address","internalType":"address"}]},{"type":"error","name":"SafeCastOverflowedUintDowncast","inputs":[{"name":"bits","type":"uint8","internalType":"uint8"},{"name":"value","type":"uint256","internalType":"uint256"}]},{"type":"error","name":"SafeERC20FailedOperation","inputs":[{"name":"token","type":"address","internalType":"address"}]}],"bytecode":{"object":"0x6080806040523460b4577ff0c57e16840df040f15088dc2f81fe391c3923bec73e23a9662efc9c229c6a009081549060ff8260401c1660a557506001600160401b036002600160401b0319828216016061575b60405161156890816100b98239f35b6001600160401b031990911681179091556040519081527fc7f505b2f371ae2175ee4913f4499e1f2633a7b5936321eed1cdaeb6115181d290602090a15f80806052565b63f92ee8a960e01b8152600490fd5b5f80fdfe6080604081815260049182361015610015575f80fd5b5f3560e01c9081630332128914610fa557508063065c1e0314610eb45780630760bac414610e4d5780630bcf996f14610de75780633cf966c914610da957806340868ce614610c8f57806342f929df14610934578063462dac1914610889578063467aea20146108625780634ca8f0ed146108345780636a42b8f81461080e57806370a08231146107d7578063715018a61461077057806374df73dd146106db578063898dc787146106545780638da5cb5b146106205780638f1c56bd14610602578063a472e3841461047f578063a51b90be146102eb578063acea136b14610268578063ae89186b1461022f578063d439351f146101e1578063d8dfeb45146101ba578063f2fde38b146101915763f6f371ee14610132575f80fd5b3461018d575f36600319011261018d5765ffffffffffff8060035460301c168015918215610178575b505061016b576101696112ca565b005b51634a44555360e11b8152fd5b9091506101844261143c565b16105f8061015b565b5f80fd5b3461018d57602036600319011261018d576101696101ad611009565b6101b5611292565b61115a565b503461018d575f36600319011261018d575f5490516001600160a01b039091168152602090f35b503461018d578060031936011261018d576020906101fd611009565b61020561101f565b6001600160a01b039182165f90815260088552838120918316815290845282902054915191168152f35b503461018d57602036600319011261018d576020906001600160a01b0380610255611009565b165f5260068352815f2054169051908152f35b503461018d578060031936011261018d577fd324c14c83226723f8446d113edef5f1e51f1bcf8ac2a583ae5f5e7f27808f3f60206102a4611009565b6102ac61101f565b906102b5611292565b6102bd6112ca565b60018060a01b0380911694855f52600684526102e3815f2060078652825f209085611347565b5191168152a2005b50903461018d576020918260031936011261018d576001600160a01b039182610312611009565b1690815f52600a8552825f2054938415610470576103328560015461106b565b600155825f52600a86525f848120555f5416835186810163a9059cbb60e01b815284602483015286604483015260448252608082019167ffffffffffffffff928181108482111761045d578752515f9182919082865af13d15610450573d91821161043d57906103c1918651916103b28a601f19601f8401160184611035565b82523d5f8a84013e5b836114af565b805187811515918261041c575b505090506104065750507fd5be285f1b0878becfe756e58f0cf3aa449bc4c406c2aae066f3a33d54e01ecf848351858152a251908152f35b8351635274afe760e01b81529182015260249150fd5b838092935001031261018d5786015180159081150361018d5780875f6103ce565b604184634e487b7160e01b5f525260245ffd5b6103c191506060906103bb565b604186634e487b7160e01b5f525260245ffd5b508251631e9acf1760e31b8152fd5b503461018d57602036600319011261018d57610499611009565b916104a2611292565b6104aa6112ca565b60059081549065ffffffffffff91828160a01c1680151590816105ed575b506105c2575b50825460a081901c83161561057257917f81c31ea2c5656f89fc438850c31cc9b7ccd45beec811b7e0a71c64a98b61f7c59593916020959365ffffffffffff60d01b1683555b546001600160a01b0394851694168403610532575b505051908152a1005b838254916105576105424261143c565b60025465ffffffffffff60a01b93169061108c565b60a01b169165ffffffffffff60d01b16171790555f80610529565b5080546001600160a01b038681169116146105b45791602093917f81c31ea2c5656f89fc438850c31cc9b7ccd45beec811b7e0a71c64a98b61f7c59593610514565b835163a741a04560e01b8152fd5b81546001600160a01b0319166001600160a01b0382161782556001600160d01b03191683555f6104ce565b9050836105f94261143c565b1610155f6104c8565b503461018d575f36600319011261018d576020906001549051908152f35b503461018d575f36600319011261018d575f805160206115138339815191525490516001600160a01b039091168152602090f35b503461018d578060031936011261018d5761066d611009565b6106b561067861101f565b9260018060a01b0380931692835f526008602052815f20941693845f52602052805f2090835f526009602052805f20855f526020525f209061121e565b7f1261e5a4e7d8e8b5c4b7a8205d04deb702f9aa1eec8959839252b0636c6e45ab5f80a3005b50903461018d575f36600319011261018d576005549165ffffffffffff808460a01c16801591821561075b575b505061016b575080546001600160a01b0319166001600160a01b0383161790556001600160d01b0319166005557f74167a6969567de7e1730e9b22e87e4fe263e7fa04bec628436c424fc7bd6b8e5f80a1005b9091506107674261143c565b16105f80610708565b3461018d575f36600319011261018d57610788611292565b5f8051602061151383398151915280546001600160a01b031981169091555f906001600160a01b03167f8be0079c531659141344cd1fd0a4f28419497f9722a3daafe3b4186f6b6457e08280a3005b503461018d57602036600319011261018d576020906001600160a01b036107fc611009565b165f52600a8252805f20549051908152f35b503461018d575f36600319011261018d5760209065ffffffffffff600254169051908152f35b503461018d575f36600319011261018d5760035465ffffffffffff825191818116835260301c166020820152f35b503461018d575f36600319011261018d57905490516001600160a01b039091168152602090f35b503461018d57606036600319011261018d576108a3611009565b906108ac61101f565b916001600160a01b0391604435908382169081830361018d5761092d602093867f3692549eb3eb5e4546a8e42a78f360aaa361c0faf3345292813dfdfbcef3c887966108f6611292565b6108fe6112ca565b1696875f5260088652835f20981697885f528552825f20875f5260098652835f20895f528652835f2091611347565b51908152a3005b50903461018d5760209060031992828436011261018d5767ffffffffffffffff823581811161018d5760c081850196823603011261018d577ff0c57e16840df040f15088dc2f81fe391c3923bec73e23a9662efc9c229c6a009586549460ff86861c161593861695861580610c88575b60018098149081610c7e575b159081610c75575b50610c665767ffffffffffffffff1981168717895584610c47575b506001600160a01b0360248401816109ea826110a6565b1615610c3757610a098291826109ff876110a6565b16610c1b576110a6565b16916001600160601b0360a01b92835f5416175f55604485013565ffffffffffff811680910361018d579488919293949565ffffffffffff19600254161760025583610a57606483016110a6565b1685845416178355815f60848301915b610b74575b505060a45f9101915b610abf575b505050505050610a8657005b7fc7f505b2f371ae2175ee4913f4499e1f2633a7b5936321eed1cdaeb6115181d29368ff000000000000000019815416905551908152a1005b610ac98287611114565b9050811015610b6f57898685610b1b8b610b0f86610af589610b15610b00610afb85610af5858d611114565b9061114a565b6110a6565b99610b0f85610af5858d611114565b016110a6565b97611114565b92165f5260088c52858a5f2091165f528b5284895f2091168015610b5f578154868116610b4f578716179055880188610a75565b8a51636f0612a560e01b81528690fd5b8951631e4ec46b60e01b81528590fd5b610a7a565b9091969594939250610b8682876110ba565b9050811015610c0f57610ba6610afb82610ba0858a6110ba565b906110f0565b84610bb98d610b0f85610ba0888d6110ba565b91165f5260068c52848a5f2091168015610bff578154868116610bef57918c949391888694161790550182939495969792610a67565b8b516308ca34cb60e31b81528690fd5b8a51631e4ec46b60e01b81528590fd5b89929394959691610a6c565b610afb610c27876110a6565b610c2f61146e565b6101b561146e565b86516368f7a67560e11b81528390fd5b68ffffffffffffffffff1916680100000000000000011788555f6109d3565b50845163f92ee8a960e01b8152fd5b9050155f6109b8565b303b1591506109b0565b50846109a4565b503461018d57602036600319011261018d5781359165ffffffffffff9081841680940361018d57610cbe611292565b610cc66112ca565b60035490603082901c831615610d6257506bffffffffffffffffffffffff19166003557fc4694f5e679fbd4fa31b993053f3134c2857558c12fe87ce9ea6bf3b1ef217709260209290915b60025416808303610d25575b5051908152a1005b826bffffffffffff000000000000610d4860035493610d434261143c565b61108c565b60301b16916001600160601b03191617176003555f610d1d565b905081600254168414610d9b5750916020917fc4694f5e679fbd4fa31b993053f3134c2857558c12fe87ce9ea6bf3b1ef2177093610d11565b825163a741a04560e01b8152fd5b503461018d575f36600319011261018d5760055490516001600160a01b038216815260a09190911c65ffffffffffff166020820152604090f35b0390f35b503461018d57602036600319011261018d57610e276001600160a01b03610e0c611009565b1691825f526006602052805f209060076020525f209061121e565b7f1a2023b9b05a5599a274f08b91afd34b22b21ea58b7ca66ef06897746db55b0f5f80a2005b503461018d578060031936011261018d57610e66611009565b610e6e61101f565b6001600160a01b039182165f908152600960209081528482209284168252918252839020549251918316825260a09290921c65ffffffffffff1691810191909152604090f35b50903461018d57608036600319011261018d57610ecf61101f565b9060643565ffffffffffff81160361018d575f5483516370a0823160e01b8152308382015293906001600160a01b03906020908690602490829085165afa948515610f9b575f95610f67575b50610f36610f2b6001548761106b565b94843560601c6111cb565b165f52600a6020525f20908154928301809311610f54575055600155005b601190634e487b7160e01b5f525260245ffd5b9094506020813d602011610f93575b81610f8360209383611035565b8101031261018d5751935f610f1b565b3d9150610f76565b82513d5f823e3d90fd5b823461018d57602036600319011261018d578190610de3906001600160a01b039081610fcf611009565b165f90815260076020908152919020546001600160a01b0392811692909216845260a09190911c65ffffffffffff16908301526040820190565b600435906001600160a01b038216820361018d57565b602435906001600160a01b038216820361018d57565b90601f8019910116810190811067ffffffffffffffff82111761105757604052565b634e487b7160e01b5f52604160045260245ffd5b9190820391821161107857565b634e487b7160e01b5f52601160045260245ffd5b91909165ffffffffffff8080941691160191821161107857565b356001600160a01b038116810361018d5790565b903590601e198136030182121561018d570180359067ffffffffffffffff821161018d57602001918160061b3603831361018d57565b91908110156111005760061b0190565b634e487b7160e01b5f52603260045260245ffd5b903590601e198136030182121561018d570180359067ffffffffffffffff821161018d5760200191606082023603831361018d57565b9190811015611100576060020190565b6001600160a01b039081169081156111b3575f8051602061151383398151915280546001600160a01b031981168417909155167f8be0079c531659141344cd1fd0a4f28419497f9722a3daafe3b4186f6b6457e05f80a3565b604051631e4fbdf760e01b81525f6004820152602490fd5b9060018060a01b0380921690815f5260086020528260405f2091165f526020528160405f2054168061121857505f5260066020528060405f2054168061121357506004541690565b905090565b91505090565b81549065ffffffffffff808360a01c16801591821561127d575b505061126b5780546001600160a01b0319166001600160a01b0390921691909117905580546001600160d01b0319169055565b604051634a44555360e11b8152600490fd5b9091506112894261143c565b16105f80611238565b5f80516020611513833981519152546001600160a01b031633036112b257565b60405163118cdaa760e01b8152336004820152602490fd5b60035465ffffffffffff808260301c168015159081611332575b506112ed575050565b811665ffffffffffff1960025416176002556001600160601b0319166003557f54b01918a30e934a38ff39572e9095d6c78b521b8efec12d15a1b485156257eb5f80a1565b90508161133e4261143c565b1610155f6112e4565b82549165ffffffffffff92838160a01c168015159081611427575b506113f9575b50835460a081901c8416156113d1576001600160d01b03191684555b546001600160a01b039182169116810361139d57505050565b82546001600160a01b0319811682178455916113bb6105424261143c565b60a01b169165ffffffffffff60d01b1617179055565b5080546001600160a01b03908116908316036113845760405163a741a04560e01b8152600490fd5b81546001600160a01b0319166001600160a01b0390911617815583546001600160d01b03191684555f611368565b9050846114334261143c565b1610155f611362565b65ffffffffffff9081811161144f571690565b604490604051906306dfcc6560e41b8252603060048301526024820152fd5b60ff7ff0c57e16840df040f15088dc2f81fe391c3923bec73e23a9662efc9c229c6a005460401c161561149d57565b604051631afcd79f60e31b8152600490fd5b906114d657508051156114c457805190602001fd5b604051630a12f52160e11b8152600490fd5b81511580611509575b6114e7575090565b604051639996b31560e01b81526001600160a01b039091166004820152602490fd5b50803b156114df56fe9016d09d72d40fdae2fd8ceac6b6234c7706214fd39c1cd1e609a0528c199300a2646970667358221220e9632cf4d6abcfaf86a91f8d02618663426d8e9ace1b7d989483fbaaead7bd1a64736f6c63430008190033","linkReferences":{}},"methodIdentifiers":{"acceptDelay()":"f6f371ee","acceptGlobalReceiver()":"74df73dd","acceptNetworkReceiver(address)":"0bcf996f","acceptOperatorNetworkReceiver(address,address)":"898dc787","balanceOf(address)":"70a08231","collateral()":"d8dfeb45","delay()":"6a42b8f8","globalReceiver()":"467aea20","initialize((address,address,uint48,address,(address,address)[],(address,address,address)[]))":"42f929df","lastBalance()":"8f1c56bd","networkReceiver(address)":"ae89186b","onSlash(bytes32,address,uint256,uint48)":"065c1e03","operatorNetworkReceiver(address,address)":"d439351f","owner()":"8da5cb5b","pendingDelay()":"4ca8f0ed","pendingGlobalReceiver()":"3cf966c9","pendingNetworkReceiver(address)":"03321289","pendingOperatorNetworkReceiver(address,address)":"0760bac4","renounceOwnership()":"715018a6","setDelay(uint48)":"40868ce6","setGlobalReceiver(address)":"a472e384","setNetworkReceiver(address,address)":"acea136b","setOperatorNetworkReceiver(address,address,address)":"462dac19","transferOwnership(address)":"f2fde38b","triggerTransfer(address)":"a51b90be"},"id":140}