{"abi":[{"type":"constructor","inputs":[{"name":"collateral","type":"address","internalType":"address"}],"stateMutability":"nonpayable"},{"type":"function","name":"initialize","inputs":[{"name":"amount","type":"uint256","internalType":"uint256"}],"outputs":[],"stateMutability":"nonpayable"},{"type":"function","name":"owner","inputs":[],"outputs":[{"name":"","type":"address","internalType":"address"}],"stateMutability":"view"},{"type":"function","name":"renounceOwnership","inputs":[],"outputs":[],"stateMutability":"nonpayable"},{"type":"function","name":"transferOwnership","inputs":[{"name":"newOwner","type":"address","internalType":"address"}],"outputs":[],"stateMutability":"nonpayable"},{"type":"function","name":"triggerClaim","inputs":[],"outputs":[],"stateMutability":"nonpayable"},{"type":"event","name":"Initialized","inputs":[{"name":"version","type":"uint64","indexed":false,"internalType":"uint64"}],"anonymous":false},{"type":"event","name":"OwnershipTransferred","inputs":[{"name":"previousOwner","type":"address","indexed":true,"internalType":"address"},{"name":"newOwner","type":"address","indexed":true,"internalType":"address"}],"anonymous":false},{"type":"error","name":"InvalidInitialization","inputs":[]},{"type":"error","name":"NotInitializing","inputs":[]},{"type":"error","name":"OwnableInvalidOwner","inputs":[{"name":"owner","type":"address","internalType":"address"}]},{"type":"error","name":"OwnableUnauthorizedAccount","inputs":[{"name":"account","type":"address","internalType":"address"}]}],"bytecode":{"object":"0x60c0604090808252346101615761002c906106b880380380916100228285610165565b833981019061019c565b7ff0c57e16840df040f15088dc2f81fe391c3923bec73e23a9662efc9c229c6a00805460ff81851c166101505760049260209290916001600160401b036002600160401b03198183160161010d575b505050608081905283516338d52e0f60e01b815292839182906001600160a01b03165afa908115610103575f916100d4575b5060a052516104fc90816101bc823960805181818161010c01526102a6015260a051815050f35b6100f6915060203d6020116100fc575b6100ee8183610165565b81019061019c565b5f6100ad565b503d6100e4565b82513d5f823e3d90fd5b6001600160401b0319909116811790915584519081527fc7f505b2f371ae2175ee4913f4499e1f2633a7b5936321eed1cdaeb6115181d2908390a15f808061007b565b835163f92ee8a960e01b8152600490fd5b5f80fd5b601f909101601f19168101906001600160401b0382119082101761018857604052565b634e487b7160e01b5f52604160045260245ffd5b9081602091031261016157516001600160a01b0381168103610161579056fe604060808152600480361015610013575f80fd5b5f915f3560e01c8063715018a6146103555780638da5cb5b14610321578063ef21fe5a14610274578063f2fde38b146102385763fe4b84df14610054575f80fd5b346102345760209081600319360112610230577ff0c57e16840df040f15088dc2f81fe391c3923bec73e23a9662efc9c229c6a0092835460ff81841c16159167ffffffffffffffff9182811680159081610228575b600114908161021e575b159081610215575b506102065767ffffffffffffffff1981166001178755836101e7575b506100e0610465565b6100e8610465565b6100f1336103bc565b8351639343d9e160e01b81528135828201529185836024818b7f00000000000000000000000000000000000000000000000000000000000000006001600160a01b03165af180156101dd5761018b575b50505061014c578380f35b7fc7f505b2f371ae2175ee4913f4499e1f2633a7b5936321eed1cdaeb6115181d29268ff00000000000000001981541690555160018152a15f80808380f35b85913d87116101d5575b601f8301601f19168401918211848310176101c25750845281010383136101be575f8080610141565b8480fd5b604190634e487b7160e01b5f525260245ffd5b3d9250610195565b85513d8a823e3d90fd5b68ffffffffffffffffff1916680100000000000000011786555f6100d7565b50835163f92ee8a960e01b8152fd5b9050155f6100bb565b303b1591506100b3565b8591506100a9565b8380fd5b8280fd5b50503461027057602036600319011261027057356001600160a01b03811681036102705761026d9061026861042d565b6103bc565b80f35b5080fd5b503461031d575f36600319011261031d5761028d61042d565b5f805160206104a7833981519152546001600160a01b037f00000000000000000000000000000000000000000000000000000000000000008116939116833b1561031d575f93602485928551968793849263f2888dbb60e01b8452878401525af18015610313576102fc578380f35b9091925067ffffffffffffffff83116101c2575052005b82513d5f823e3d90fd5b5f80fd5b503461031d575f36600319011261031d575f805160206104a78339815191525490516001600160a01b039091168152602090f35b3461031d575f36600319011261031d5761036d61042d565b5f805160206104a783398151915280546001600160a01b031981169091555f906001600160a01b03167f8be0079c531659141344cd1fd0a4f28419497f9722a3daafe3b4186f6b6457e08280a3005b6001600160a01b03908116908115610415575f805160206104a783398151915280546001600160a01b031981168417909155167f8be0079c531659141344cd1fd0a4f28419497f9722a3daafe3b4186f6b6457e05f80a3565b604051631e4fbdf760e01b81525f6004820152602490fd5b5f805160206104a7833981519152546001600160a01b0316330361044d57565b60405163118cdaa760e01b8152336004820152602490fd5b60ff7ff0c57e16840df040f15088dc2f81fe391c3923bec73e23a9662efc9c229c6a005460401c161561049457565b604051631afcd79f60e31b8152600490fdfe9016d09d72d40fdae2fd8ceac6b6234c7706214fd39c1cd1e609a0528c199300a264697066735822122045b626f89aadd188cd7f23200aa642384f80a25d082fb0e7fefe24b5dc89e52964736f6c63430008190033","linkReferences":{}},"methodIdentifiers":{"initialize(uint256)":"fe4b84df","owner()":"8da5cb5b","renounceOwnership()":"715018a6","transferOwnership(address)":"f2fde38b","triggerClaim()":"ef21fe5a"},"id":133}