{"abi":[{"type":"constructor","inputs":[{"name":"collateral","type":"address","internalType":"address"},{"name":"lidoWithdrawalQueue","type":"address","internalType":"address"}],"stateMutability":"nonpayable"},{"type":"receive","stateMutability":"payable"},{"type":"function","name":"COLLATERAL","inputs":[],"outputs":[{"name":"","type":"address","internalType":"address"}],"stateMutability":"view"},{"type":"function","name":"LIDO_WITHDRAWAL_QUEUE","inputs":[],"outputs":[{"name":"","type":"address","internalType":"address"}],"stateMutability":"view"},{"type":"function","name":"MAX_STETH_WITHDRAWAL_AMOUNT","inputs":[],"outputs":[{"name":"","type":"uint256","internalType":"uint256"}],"stateMutability":"view"},{"type":"function","name":"MIN_STETH_WITHDRAWAL_AMOUNT","inputs":[],"outputs":[{"name":"","type":"uint256","internalType":"uint256"}],"stateMutability":"view"},{"type":"function","name":"STETH","inputs":[],"outputs":[{"name":"","type":"address","internalType":"address"}],"stateMutability":"view"},{"type":"function","name":"requestIds","inputs":[{"name":"index","type":"uint256","internalType":"uint256"},{"name":"maxRequestIds","type":"uint256","internalType":"uint256"}],"outputs":[{"name":"requestIds_","type":"uint256[]","internalType":"uint256[]"}],"stateMutability":"view"},{"type":"function","name":"requestIdsLength","inputs":[],"outputs":[{"name":"","type":"uint256","internalType":"uint256"}],"stateMutability":"view"},{"type":"function","name":"triggerBurn","inputs":[{"name":"requestId","type":"uint256","internalType":"uint256"}],"outputs":[],"stateMutability":"nonpayable"},{"type":"function","name":"triggerBurnBatch","inputs":[{"name":"requestIds_","type":"uint256[]","internalType":"uint256[]"},{"name":"hints","type":"uint256[]","internalType":"uint256[]"}],"outputs":[],"stateMutability":"nonpayable"},{"type":"function","name":"triggerWithdrawal","inputs":[{"name":"maxRequests","type":"uint256","internalType":"uint256"}],"outputs":[{"name":"requestIds_","type":"uint256[]","internalType":"uint256[]"}],"stateMutability":"nonpayable"},{"type":"event","name":"TriggerBurn","inputs":[{"name":"caller","type":"address","indexed":true,"internalType":"address"},{"name":"requestId","type":"uint256","indexed":false,"internalType":"uint256"}],"anonymous":false},{"type":"event","name":"TriggerBurnBatch","inputs":[{"name":"caller","type":"address","indexed":true,"internalType":"address"},{"name":"requestIds","type":"uint256[]","indexed":false,"internalType":"uint256[]"}],"anonymous":false},{"type":"event","name":"TriggerWithdrawal","inputs":[{"name":"caller","type":"address","indexed":true,"internalType":"address"},{"name":"requestIds","type":"uint256[]","indexed":false,"internalType":"uint256[]"}],"anonymous":false},{"type":"error","name":"InsufficientWithdrawal","inputs":[]},{"type":"error","name":"InvalidRequestId","inputs":[]}],"bytecode":{"object":"0x6101206040818152346101a3578082610fae80380380916100208285610256565b8339810103126101a3576100338261028d565b91610041602080920161028d565b60809390935260c08390528151630e00bfe560e41b81526001600160a01b0393841693908281600481885afa908115610217575f91610221575b5060a0528251630d25a95760e01b81528281600481885afa908115610217575f916101e9575b5060e052825163db2296cd60e01b8152938290859060049082905afa9384156101ae575f946101b8575b5061010093845260a05160c051845163095ea7b360e01b815290831660048201525f19602482015292918291849160449183915f91165af180156101ae57610177575b505051610d0c91826102a283396080518281816101960152610879015260a05182818160a8015261020c015260c05182818161012901528181610330015281816106260152610905015260e05182818161026b01526108c001525181818160f2015261023f0152f35b81813d83116101a7575b61018b8183610256565b810103126101a35751801515036101a3575f8061010e565b5f80fd5b503d610181565b83513d5f823e3d90fd5b918091945082813d83116101e2575b6101d18183610256565b810103126101a357905192816100cb565b503d6101c7565b90508281813d8311610210575b6102008183610256565b810103126101a3575160046100a1565b503d6101f6565b84513d5f823e3d90fd5b90508281813d831161024f575b6102388183610256565b810103126101a3576102499061028d565b5f61007b565b503d61022e565b601f909101601f19168101906001600160401b0382119082101761027957604052565b634e487b7160e01b5f52604160045260245ffd5b51906001600160a01b03821682036101a35756fe6040608081526004908136101561001f575b5050361561001d575f80fd5b005b5f915f3560e01c9081630bc8cbcf146108e35781630d25a957146108a857816324bbab8b146108645781634383ee3d1461078857816345a67f511461076b5781635faeff4c146105c757816392284cb61461015857508063b8c7777414610115578063db2296cd146100db5763e00bfe500361001157346100d757816003193601126100d757517f00000000000000000000000000000000000000000000000000000000000000006001600160a01b03168152602090f35b5080fd5b50346100d757816003193601126100d757602090517f00000000000000000000000000000000000000000000000000000000000000008152f35b50346100d757816003193601126100d757517f00000000000000000000000000000000000000000000000000000000000000006001600160a01b03168152602090f35b919050346105c357602091826003193601126105bf5781516370a0823160e01b8082523082840152823595909290916001600160a01b0391906024907f000000000000000000000000000000000000000000000000000000000000000084169088818481855afa9081156105b55791838a9288948591610580575b508a519485938492636f074d1f60e11b8452898401525af180156105765790889161054d575b50508551948552308286015286858281867f0000000000000000000000000000000000000000000000000000000000000000165afa948515610543578495610510575b507f00000000000000000000000000000000000000000000000000000000000000009788156104fe57888604907f00000000000000000000000000000000000000000000000000000000000000008a880610156104da575b808210156104d25750945b85156104c2576102ae86610ad9565b985f198701918783116104b0578a875b8385821061049b5791505083029083820483148415171561048957938993610305899896946102f36103269f99958b97610aa0565b90808210156104815750915b88610b0b565b5283519b8c9687958694636b34082160e11b865285015260448401906109f2565b90309083015203927f0000000000000000000000000000000000000000000000000000000000000000165af19485156104755781956103d7575b505b8181106103ba575050806103b691518381527fe60bc3f6bd772e2234b4831b9c71ac461b4afc653329fb877fba5853b724ae753391806103a4878201896109f2565b0390a2519282849384528301906109f2565b0390f35b806103d06103ca60019388610b0b565b51610c7e565b5001610362565b9094503d8086833e6103e98183610a7e565b810190848183031261046d5780519067ffffffffffffffff821161047157019080601f8301121561046d57815161041f81610ac1565b9261042c86519485610a7e565b818452868085019260051b8201019283116104695786809101915b8383106104595750505050935f610360565b8251815291810191879101610447565b8780fd5b8580fd5b8680fd5b508251903d90823e3d90fd5b9050916102ff565b634e487b7160e01b8852601186528488fd5b6104a782600194610b0b565b52018b906102be565b634e487b7160e01b8752601185528387fd5b8651636c6c627d60e11b81528390fd5b90509461029f565b90600181018091116104ec5790610294565b634e487b7160e01b8652601184528286fd5b50634e487b7160e01b84526012825283fd5b9094508681813d831161053c575b6105288183610a7e565b810103126105385751935f61023c565b5f80fd5b503d61051e565b86513d86823e3d90fd5b813d831161056f575b6105608183610a7e565b8101031261053857865f6101f9565b503d610556565b87513d87823e3d90fd5b93929450505081813d83116105ae575b61059a8183610a7e565b81010312610538578591838a92515f6101d3565b503d610590565b88513d88823e3d90fd5b8380fd5b8280fd5b919050346105c3576003199080823601126105bf5767ffffffffffffffff833581811161046d576105fb9036908601610a25565b9490936024358381116104695790610617889236908501610a25565b909190835b89811061074a57507f00000000000000000000000000000000000000000000000000000000000000006001600160a01b0316803b156107465787858761069382968e968e9961068487519b8c9a8b998a9863e3afe0a360e01b8a528901526044880191610b33565b92858403016024860152610b33565b03925af1801561073c57610728575b5050479183519160039081840192848410908411176107155750908291610cd483390391f01561070c577f30d1c85d591b30123c542e62c0c42de83290455affaab177afca24b1c3aecd1e9161070691519182916020835233956020840191610b33565b0390a280f35b513d84823e3d90fd5b634e487b7160e01b895260419052602488fd5b61073190610a56565b61046d57855f6106a2565b85513d84823e3d90fd5b8480fd5b600191929394506107608160051b8a0135610b57565b01908993929161061c565b5050346100d757816003193601126100d757602091549051908152f35b8383346100d757806003193601126100d7578235602481602435810180821161085157906107c49186548082105f146108475750969396610aa0565b916107ce83610ad9565b945f54905b8481106107ef578551602080825281906103b69082018a6109f2565b81881015610835575f8052877f290decd9548b62a8d60345a988386fc84ba6bc95484008f6362f93160ef3e56301546108288289610b0b565b52600197880197016107d3565b83603284634e487b7160e01b5f52525ffd5b9050969396610aa0565b601187634e487b7160e01b5f525260245ffd5b5050346100d757816003193601126100d757517f00000000000000000000000000000000000000000000000000000000000000006001600160a01b03168152602090f35b5050346100d757816003193601126100d757602090517f00000000000000000000000000000000000000000000000000000000000000008152f35b919050346105385760203660031901126105385781359161090383610b57565b7f00000000000000000000000000000000000000000000000000000000000000006001600160a01b0316803b15610538575f80916024855180948193637c22221b60e11b835289888401525af180156109e8576109d5575b508151479160038083019167ffffffffffffffff8311848410176109c25750908291610cd483390391f0156109b757519081527f4ee9ebe815db7e3e7645cd8bd4d663bf6b60b8505a4dd52fcf38aaef8b6d988460203392a280f35b51913d9150823e3d90fd5b634e487b7160e01b885260419052602487fd5b6109e0919450610a56565b5f925f61095b565b83513d5f823e3d90fd5b9081518082526020808093019301915f5b828110610a11575050505090565b835185529381019392810192600101610a03565b9181601f840112156105385782359167ffffffffffffffff8311610538576020808501948460051b01011161053857565b67ffffffffffffffff8111610a6a57604052565b634e487b7160e01b5f52604160045260245ffd5b90601f8019910116810190811067ffffffffffffffff821117610a6a57604052565b91908203918211610aad57565b634e487b7160e01b5f52601160045260245ffd5b67ffffffffffffffff8111610a6a5760051b60200190565b90610ae382610ac1565b610af06040519182610a7e565b8281528092610b01601f1991610ac1565b0190602036910137565b8051821015610b1f5760209160051b010190565b634e487b7160e01b5f52603260045260245ffd5b81835290916001600160fb1b0383116105385760209260051b809284830137010190565b610b6090610bac565b15610b6757565b6040516302e8145360e61b8152600490fd5b5f54811015610b1f575f80527f290decd9548b62a8d60345a988386fc84ba6bc95484008f6362f93160ef3e56301905f90565b5f818152600160205260409020548015610c78575f1990808201818111610aad575f5490838201918211610aad57818103610c2e575b5050505f548015610c1a57810190610bf982610b79565b909182549160031b1b191690555f555f5260016020525f6040812055600190565b634e487b7160e01b5f52603160045260245ffd5b610c62610c3d610c4c93610b79565b90549060031b1c928392610b79565b819391549060031b91821b915f19901b19161790565b90555f52600160205260405f20555f8080610be2565b50505f90565b805f52600160205260405f2054155f14610cce575f5468010000000000000000811015610a6a57610cb8610c4c8260018594015f55610b79565b90555f54905f52600160205260405f2055600190565b505f9056fe30fffea2646970667358221220b8fe978d50edcb9968a6e2d1c4f78fa23e0e2d0733cefad4b423214774f7c2f164736f6c63430008190033","linkReferences":{}},"methodIdentifiers":{"COLLATERAL()":"24bbab8b","LIDO_WITHDRAWAL_QUEUE()":"b8c77774","MAX_STETH_WITHDRAWAL_AMOUNT()":"db2296cd","MIN_STETH_WITHDRAWAL_AMOUNT()":"0d25a957","STETH()":"e00bfe50","requestIds(uint256,uint256)":"4383ee3d","requestIdsLength()":"45a67f51","triggerBurn(uint256)":"0bc8cbcf","triggerBurnBatch(uint256[],uint256[])":"5faeff4c","triggerWithdrawal(uint256)":"92284cb6"},"id":136}