{"abi":[{"type":"constructor","inputs":[{"name":"collateral","type":"address","internalType":"address"},{"name":"fraxEtherRedemptionQueue","type":"address","internalType":"address"}],"stateMutability":"nonpayable"},{"type":"receive","stateMutability":"payable"},{"type":"function","name":"COLLATERAL","inputs":[],"outputs":[{"name":"","type":"address","internalType":"address"}],"stateMutability":"view"},{"type":"function","name":"FRAX_ETHER_REDEMPTION_QUEUE","inputs":[],"outputs":[{"name":"","type":"address","internalType":"address"}],"stateMutability":"view"},{"type":"function","name":"onERC721Received","inputs":[{"name":"","type":"address","internalType":"address"},{"name":"","type":"address","internalType":"address"},{"name":"","type":"uint256","internalType":"uint256"},{"name":"","type":"bytes","internalType":"bytes"}],"outputs":[{"name":"","type":"bytes4","internalType":"bytes4"}],"stateMutability":"nonpayable"},{"type":"function","name":"requestIds","inputs":[{"name":"index","type":"uint256","internalType":"uint256"},{"name":"maxRequestIds","type":"uint256","internalType":"uint256"}],"outputs":[{"name":"requestIds_","type":"uint256[]","internalType":"uint256[]"}],"stateMutability":"view"},{"type":"function","name":"requestIdsLength","inputs":[],"outputs":[{"name":"","type":"uint256","internalType":"uint256"}],"stateMutability":"view"},{"type":"function","name":"triggerBurn","inputs":[{"name":"requestId","type":"uint256","internalType":"uint256"}],"outputs":[],"stateMutability":"nonpayable"},{"type":"function","name":"triggerWithdrawal","inputs":[],"outputs":[{"name":"requestId","type":"uint256","internalType":"uint256"}],"stateMutability":"nonpayable"},{"type":"event","name":"TriggerBurn","inputs":[{"name":"caller","type":"address","indexed":true,"internalType":"address"},{"name":"requestId","type":"uint256","indexed":false,"internalType":"uint256"}],"anonymous":false},{"type":"event","name":"TriggerWithdrawal","inputs":[{"name":"caller","type":"address","indexed":true,"internalType":"address"},{"name":"requestId","type":"uint256","indexed":false,"internalType":"uint256"}],"anonymous":false},{"type":"error","name":"InvalidRequestId","inputs":[]}],"bytecode":{"object":"0x60c080604052346100ea57604081610923803803809161001f8285610101565b8339810103126100ea57602061003f8161003884610138565b9301610138565b608083905260a081905260405163095ea7b360e01b81526001600160a01b0391821660048201525f19602482015292839160449183915f91165af180156100f6576100ba575b6040516107d6908161014d8239608051818181610261015261048c015260a05181818160900152818161033c01526104ed0152f35b6020813d6020116100ee575b816100d360209383610101565b810103126100ea5751801515036100ea575f610085565b5f80fd5b3d91506100c6565b6040513d5f823e3d90fd5b601f909101601f19168101906001600160401b0382119082101761012457604052565b634e487b7160e01b5f52604160045260245ffd5b51906001600160a01b03821682036100ea5756fe6080604081815260049182361015610021575b505050361561001f575f80fd5b005b5f925f3560e01c918263041e018514610459575081630bc8cbcf14610315578163150b7a021461029057816324bbab8b1461024c5781634383ee3d146100df5750806345a67f51146100c35763ea98e28c1461007d5780610012565b346100bf57816003193601126100bf57517f00000000000000000000000000000000000000000000000000000000000000006001600160a01b03168152602090f35b5080fd5b50346100bf57816003193601126100bf57602091549051908152f35b905082346102495782600319360112610249578135906024908260243581018082116102365782548082101561022e5750905b810390811161021b57909194939261012982610603565b91610136865193846105cd565b80835261014281610603565b6020978489019691601f19013688375f54865b84811061019d5750505050505083519485948186019282875251809352850193925b82811061018657505050500390f35b835185528695509381019392810192600101610177565b81869b9897999a9b1015610209575f8052857f290decd9548b62a8d60345a988386fc84ba6bc95484008f6362f93160ef3e563015489518210156101f757888260051b8b0101526001809101950194999897959699610155565b634e487b7160e01b8852603285528388fd5b82603285634e487b7160e01b5f52525ffd5b601185634e487b7160e01b5f525260245ffd5b905090610112565b634e487b7160e01b835260118652602483fd5b80fd5b5050346100bf57816003193601126100bf57517f00000000000000000000000000000000000000000000000000000000000000006001600160a01b03168152602090f35b905034610311576080366003190112610311576001600160a01b0381358181160361030d576024359081160361030d576064359067ffffffffffffffff9081831161030957366023840112156103095782013590811161030557369101602401116100bf5751630a85bd0160e11b8152602090f35b8380fd5b8480fd5b5f80fd5b8280fd5b9190503461030d57602036600319011261030d57813591610335836106cd565b1561044b577f00000000000000000000000000000000000000000000000000000000000000006001600160a01b0316803b1561030d575f80916044855180948193630a5334e560e01b835289888401523060248401525af1801561044157610412575b508151479160038083019167ffffffffffffffff8311848410176103ff575090829161079e83390391f0156103f457519081527f4ee9ebe815db7e3e7645cd8bd4d663bf6b60b8505a4dd52fcf38aaef8b6d988460203392a280f35b51913d9150823e3d90fd5b634e487b7160e01b885260419052602487fd5b90935067ffffffffffffffff811161042e5781525f925f610398565b604184634e487b7160e01b5f525260245ffd5b83513d5f823e3d90fd5b90516302e8145360e61b8152fd5b90833461030d575f36600319011261030d576370a0823160e01b835230828401526020926001600160a01b0384826024817f000000000000000000000000000000000000000000000000000000000000000085165afa91821561044157908592915f92610591575b506001600160781b03945f604492865197889586946370a65dc560e11b865230908601521660248401527f0000000000000000000000000000000000000000000000000000000000000000165af1918215610587575f92610558575b5061052782610662565b5080518281527f262b8826d3cce07380cc79eea8c1390c2680f3cc26276b7aecaed4868164cb45843392a251908152f35b9091508281813d8311610580575b61057081836105cd565b8101031261030d5751908361051d565b503d610566565b50513d5f823e3d90fd5b838196949293503d83116105c6575b6105aa81836105cd565b8101031261030d57925190928491906001600160781b036104c1565b503d6105a0565b90601f8019910116810190811067ffffffffffffffff8211176105ef57604052565b634e487b7160e01b5f52604160045260245ffd5b67ffffffffffffffff81116105ef5760051b60200190565b5f5481101561064e575f80527f290decd9548b62a8d60345a988386fc84ba6bc95484008f6362f93160ef3e56301905f90565b634e487b7160e01b5f52603260045260245ffd5b805f52600160205260405f2054155f146106c8575f54680100000000000000008110156105ef576106b261069c8260018594015f5561061b565b819391549060031b91821b915f19901b19161790565b90555f54905f52600160205260405f2055600190565b505f90565b5f818152600160205260409020548015610797575f1990808201818111610783575f54908382019182116107835781810361074f575b5050505f54801561073b5781019061071a8261061b565b909182549160031b1b191690555f555f5260016020525f6040812055600190565b634e487b7160e01b5f52603160045260245ffd5b61076d61075e61069c9361061b565b90549060031b1c92839261061b565b90555f52600160205260405f20555f8080610703565b634e487b7160e01b5f52601160045260245ffd5b50505f9056fe30fffea2646970667358221220cd33aceaeabcdc7e2b090a8d264ed7ff1580ab4f78e97a782f06a4765eb581c564736f6c63430008190033","linkReferences":{}},"methodIdentifiers":{"COLLATERAL()":"24bbab8b","FRAX_ETHER_REDEMPTION_QUEUE()":"ea98e28c","onERC721Received(address,address,uint256,bytes)":"150b7a02","requestIds(uint256,uint256)":"4383ee3d","requestIdsLength()":"45a67f51","triggerBurn(uint256)":"0bc8cbcf","triggerWithdrawal()":"041e0185"},"id":134}