{"abi":[{"type":"constructor","inputs":[{"name":"collateral","type":"address","internalType":"address"}],"stateMutability":"nonpayable"},{"type":"receive","stateMutability":"payable"},{"type":"function","name":"COLLATERAL","inputs":[],"outputs":[{"name":"","type":"address","internalType":"address"}],"stateMutability":"view"},{"type":"function","name":"triggerBurn","inputs":[{"name":"amount","type":"uint256","internalType":"uint256"}],"outputs":[],"stateMutability":"nonpayable"},{"type":"event","name":"TriggerBurn","inputs":[{"name":"caller","type":"address","indexed":true,"internalType":"address"},{"name":"assetAmount","type":"uint256","indexed":false,"internalType":"uint256"},{"name":"ethAmount","type":"uint256","indexed":false,"internalType":"uint256"}],"anonymous":false}],"bytecode":{"object":"0x60a034606b57601f61026938819003918201601f19168301916001600160401b03831184841017606f57808492602094604052833981010312606b57516001600160a01b0381168103606b576080526040516101e590816100848239608051818181604f0152609c0152f35b5f80fd5b634e487b7160e01b5f52604160045260245ffdfe60806040818152600436101561001e575b5050361561001c575f80fd5b005b5f915f3560e01c9081630bc8cbcf1461008257506324bbab8b03610010573461007e578160031936011261007e57517f00000000000000000000000000000000000000000000000000000000000000006001600160a01b03168152602090f35b5080fd5b919050346101a85760203660031901126101a857600435917f00000000000000000000000000000000000000000000000000000000000000006001600160a01b0316803b156101a857816024815f8094630852cd8d60e31b83528860048401525af1801561019e5761016e575b5047815160038082019082821067ffffffffffffffff83111761015a579082916101ad8339039082f01561015057907ff04af4aa419dbccb13024c7e3c652ec214ad43e79b4e23f36741bbe27580868191815193845260208401523392a280f35b81513d85823e3d90fd5b634e487b7160e01b87526041600452602487fd5b90925067ffffffffffffffff811161018a5782525f915f6100ef565b634e487b7160e01b5f52604160045260245ffd5b82513d5f823e3d90fd5b5f80fdfe30fffea2646970667358221220df07adf56800905bbf58d23ca22938fca48679af655c10c595debab03517a8ff64736f6c63430008190033","linkReferences":{}},"methodIdentifiers":{"COLLATERAL()":"24bbab8b","triggerBurn(uint256)":"0bc8cbcf"},"id":131}