{"abi":[{"type":"constructor","inputs":[{"name":"collateral","type":"address","internalType":"address"},{"name":"miniburnerImplementation","type":"address","internalType":"address"}],"stateMutability":"nonpayable"},{"type":"function","name":"COLLATERAL","inputs":[],"outputs":[{"name":"","type":"address","internalType":"address"}],"stateMutability":"view"},{"type":"function","name":"USDE","inputs":[],"outputs":[{"name":"","type":"address","internalType":"address"}],"stateMutability":"view"},{"type":"function","name":"approveUSDeMinter","inputs":[],"outputs":[],"stateMutability":"nonpayable"},{"type":"function","name":"isValidSignature","inputs":[{"name":"hash_","type":"bytes32","internalType":"bytes32"},{"name":"signature","type":"bytes","internalType":"bytes"}],"outputs":[{"name":"","type":"bytes4","internalType":"bytes4"}],"stateMutability":"view"},{"type":"function","name":"requestIds","inputs":[{"name":"index","type":"uint256","internalType":"uint256"},{"name":"maxRequestIds","type":"uint256","internalType":"uint256"}],"outputs":[{"name":"requestIds_","type":"address[]","internalType":"address[]"}],"stateMutability":"view"},{"type":"function","name":"requestIdsLength","inputs":[],"outputs":[{"name":"","type":"uint256","internalType":"uint256"}],"stateMutability":"view"},{"type":"function","name":"triggerBurn","inputs":[{"name":"asset","type":"address","internalType":"address"}],"outputs":[],"stateMutability":"nonpayable"},{"type":"function","name":"triggerClaim","inputs":[{"name":"requestId","type":"address","internalType":"address"}],"outputs":[],"stateMutability":"nonpayable"},{"type":"function","name":"triggerInstantClaim","inputs":[],"outputs":[],"stateMutability":"nonpayable"},{"type":"function","name":"triggerWithdrawal","inputs":[],"outputs":[{"name":"requestId","type":"address","internalType":"address"}],"stateMutability":"nonpayable"},{"type":"event","name":"TriggerBurn","inputs":[{"name":"caller","type":"address","indexed":true,"internalType":"address"},{"name":"asset","type":"address","indexed":true,"internalType":"address"},{"name":"amount","type":"uint256","indexed":false,"internalType":"uint256"}],"anonymous":false},{"type":"event","name":"TriggerClaim","inputs":[{"name":"caller","type":"address","indexed":true,"internalType":"address"},{"name":"requestId","type":"address","indexed":false,"internalType":"address"}],"anonymous":false},{"type":"event","name":"TriggerInstantClaim","inputs":[{"name":"caller","type":"address","indexed":true,"internalType":"address"},{"name":"amount","type":"uint256","indexed":false,"internalType":"uint256"}],"anonymous":false},{"type":"event","name":"TriggerWithdrawal","inputs":[{"name":"caller","type":"address","indexed":true,"internalType":"address"},{"name":"amount","type":"uint256","indexed":false,"internalType":"uint256"},{"name":"requestId","type":"address","indexed":false,"internalType":"address"}],"anonymous":false},{"type":"error","name":"AddressEmptyCode","inputs":[{"name":"target","type":"address","internalType":"address"}]},{"type":"error","name":"AddressInsufficientBalance","inputs":[{"name":"account","type":"address","internalType":"address"}]},{"type":"error","name":"ERC1167FailedCreateClone","inputs":[]},{"type":"error","name":"FailedInnerCall","inputs":[]},{"type":"error","name":"HasCooldown","inputs":[]},{"type":"error","name":"InvalidAsset","inputs":[]},{"type":"error","name":"InvalidRequestId","inputs":[]},{"type":"error","name":"NoCooldown","inputs":[]},{"type":"error","name":"SafeERC20FailedOperation","inputs":[{"name":"token","type":"address","internalType":"address"}]},{"type":"error","name":"SufficientApproval","inputs":[]}],"bytecode":{"object":"0x60e0604090808252346101ee57818161168a8038038091610020828561026b565b8339810103126101ee57806100376100439261028e565b6020928380930161028e565b608082905284516338d52e0f60e01b81526001600160a01b039490928390600490829088165afa9081156101f95784925f92610203575b508160a05260c0521683516303aa30b960e11b81528281600481855afa9081156101f9575f916101c0575b508451925f808286019663095ea7b360e01b94858952169687602488015281196044880152604487526100d78761023c565b86519082875af16100e66102a2565b81610190575b5080610186575b1561014b575b85516112bd90816103cd823960805181818160b9015281816104c5015281816108c201526109a0015260a05181818161025d015281816102bf0152818161087f0152610e10015260c05181610a0f0152f35b61017c946101779287519283015260248201525f6044820152604481526101718161023c565b826102f8565b6102f8565b5f808080806100f9565b50823b15156100f3565b805180159250839083156101a8575b5050505f6100ec565b6101b893508201810191016102e0565b5f828161019f565b90508281813d83116101f2575b6101d7818361026b565b810103126101ee576101e89061028e565b5f6100a5565b5f80fd5b503d6101cd565b85513d5f823e3d90fd5b925090508282813d8111610235575b61021c818361026b565b810103126101ee5761022e849261028e565b905f61007a565b503d610212565b608081019081106001600160401b0382111761025757604052565b634e487b7160e01b5f52604160045260245ffd5b601f909101601f19168101906001600160401b0382119082101761025757604052565b51906001600160a01b03821682036101ee57565b3d156102db573d906001600160401b03821161025757604051916102d0601f8201601f19166020018461026b565b82523d5f602084013e565b606090565b908160209103126101ee575180151581036101ee5790565b5f806103209260018060a01b03169360208151910182865af16103196102a2565b9083610369565b805190811515918261034e575b50506103365750565b60249060405190635274afe760e01b82526004820152fd5b61036192506020809183010191016102e0565b155f8061032d565b90610390575080511561037e57805190602001fd5b604051630a12f52160e11b8152600490fd5b815115806103c3575b6103a1575090565b604051639996b31560e01b81526001600160a01b039091166004820152602490fd5b50803b1561039956fe60806040818152600480361015610014575f80fd5b5f925f3560e01c908163041e018514610977575080631626ba7e146108f157806324bbab8b146108ae57806342de081b1461086b5780634383ee3d1461070957806345a67f51146106ec5780634bf20e201461063757806371f16aad146104a2578063e854535e146102915763e9e179201461008e575f80fd5b3461028d576020806003193601126102895781356001600160a01b03818116949185900361028557807f0000000000000000000000000000000000000000000000000000000000000000168514908115610259575b5061024a5783610166578051479360038083019167ffffffffffffffff83118484101761015357509082916112858339039084f01561014a57907f10b34285c16e79ef46ec8143f038d4bdad522c314d150d22c43f7ac9c742a327915b519283523392a380f35b513d85823e3d90fd5b634e487b7160e01b895260419052602488fd5b91908251916370a0823160e01b835230908301528082602481875afa9182156102405785926101ed575b50825163a9059cbb60e01b8282015261dead60248201526044808201849052815291927f10b34285c16e79ef46ec8143f038d4bdad522c314d150d22c43f7ac9c742a327926101e8906101e281610bf5565b86611075565b610140565b91508082813d8311610239575b6102048183610c11565b81010312610235577f10b34285c16e79ef46ec8143f038d4bdad522c314d150d22c43f7ac9c742a327915191610190565b5f80fd5b503d6101fa565b83513d87823e3d90fd5b51636448d6e960e11b81529050fd5b90507f00000000000000000000000000000000000000000000000000000000000000001684145f6100e3565b8580fd5b8380fd5b8280fd5b5091903461049e578160031936011261049e5780516303aa30b960e11b815260209390916001600160a01b037f0000000000000000000000000000000000000000000000000000000000000000811692919086858481875afa94851561045d578695610467575b508151636eb1769f60e11b815230848201529416602485018190528685604481875afa94851561045d57869561042e575b505f1994851461042057815194868089880163095ea7b360e01b938482528560248b015260448a01526044895261035f89610bf5565b88519082895af161036e611046565b816103f0575b50806103e6575b15610384578680f35b825197880152602487015284604487015260448652608086019186831067ffffffffffffffff8411176103d35750946103c3916103c895965282611075565b611075565b805f80808080808680f35b604190634e487b7160e01b5f525260245ffd5b50843b151561037b565b8051801592508a908315610408575b5050505f610374565b6104189350820181019101610c6a565b5f89816103ff565b505163a2e1d66960e01b8152fd5b9094508681813d8311610456575b6104468183610c11565b810103126102355751935f610329565b503d61043c565b82513d88823e3d90fd5b9094508681813d8311610497575b61047f8183610c11565b810103126102855761049090610c96565b935f6102f8565b503d610475565b5080fd5b50903461028d578260031936011261028d578051633526931560e01b81526020907f00000000000000000000000000000000000000000000000000000000000000006001600160a01b03169082818681855afa9081156105f1579062ffffff91879161060a575b50166105fb5782516370a0823160e01b81523085820152938285602481855afa9485156105f15786956105c2575b5084606484928887519586948593635d043b2960e11b85528401523060248401523060448401525af1801561024057610598575b507f44ce5b54555a9c96767133da974ebafd206eafbbdc523f635e09f75b7f4171d691519283523392a280f35b8190813d83116105bb575b6105ad8183610c11565b81010312610235575f61056b565b503d6105a3565b9094508281813d83116105ea575b6105da8183610c11565b8101031261023557519382610537565b503d6105d0565b84513d88823e3d90fd5b505051632c50863b60e01b8152fd5b61062a9150843d8611610630575b6106228183610c11565b810190610c4f565b5f610509565b503d610618565b5090346102355760203660031901126102355781356001600160a01b03811692908390036102355761066883611151565b156106de57823b15610235575f82518092637790ff2d60e11b82528183875af180156106d4576106c1575b50519081527f57e41aed337843ff9b9328b03a65f1ef655c06d5dd77f62f3ee089ce69ddd51160203392a280f35b6106cc919350610bcd565b5f915f610693565b82513d5f823e3d90fd5b90516302e8145360e61b8152fd5b8234610235575f366003190112610235576020905f549051908152f35b503461023557816003193601126102355780359060249180602435810191828211610850575f54928381101561086357915b820391821161085057906107528196959496610fe7565b9561075f86519788610c11565b81875261076b82610fe7565b9460209485890196601f19013688375f5b8481106107ce5750505050505082519384938285019183865251809252840192915f5b8281106107ae57505050500390f35b83516001600160a01b03168552869550938101939281019260010161079f565b81869a98999a101561083e575f805260018060a01b03867f290decd9548b62a8d60345a988386fc84ba6bc95484008f6362f93160ef3e563015416885182101561082c57878260051b8a01015260018091019501949897969861077c565b83603286634e487b7160e01b5f52525ffd5b82603285634e487b7160e01b5f52525ffd5b601184634e487b7160e01b5f525260245ffd5b50829161073b565b8234610235575f36600319011261023557517f00000000000000000000000000000000000000000000000000000000000000006001600160a01b03168152602090f35b8234610235575f36600319011261023557517f00000000000000000000000000000000000000000000000000000000000000006001600160a01b03168152602090f35b50903461023557806003193601126102355760243567ffffffffffffffff8111610235573660238201121561023557808301359261092e84610c33565b9061093b84519283610c11565b8482523660248685010111610235575f602086819760246109659701838701378401015235610caa565b90516001600160e01b03199091168152f35b828434610235575f36600319011261023557633526931560e01b83526020926001600160a01b037f000000000000000000000000000000000000000000000000000000000000000081169185818681865afa908115610b58575f91610bb0575b5062ffffff80911615610ba1576e5af43d82803e903d91602b57fd5bf390763d602d80600a3d3981f3363d3d373d3d3d363d730000007f0000000000000000000000000000000000000000000000000000000000000000918260881c16175f5260781b178552603760095ff016928315610b935782516370a0823160e01b81523082820152918583602481845afa928315610b58579086915f94610b62575b50905f91604486518094819363a9059cbb60e01b83528a888401528860248401525af18015610b5857610b2b575b50833b1561023557825163fe4b84df60e01b81529081018290525f8160248183885af18015610b2157610b12575b50610adc836110e6565b50815190815282848201527fa3a2f7ea0a86c4c3a1be020951dce1acdc9e7b12aac6fe2104f3c90d7e9ee693823392a251908152f35b610b1b90610bcd565b84610ad2565b83513d5f823e3d90fd5b610b4a90863d8811610b51575b610b428183610c11565b810190610c6a565b5085610aa4565b503d610b38565b84513d5f823e3d90fd5b8281939295503d8311610b8c575b610b7a8183610c11565b8101031261023557519185905f610a76565b503d610b70565b82516330be1a3d60e21b8152fd5b505050516231bd6560e01b8152fd5b610bc79150863d8811610630576106228183610c11565b866109d7565b67ffffffffffffffff8111610be157604052565b634e487b7160e01b5f52604160045260245ffd5b6080810190811067ffffffffffffffff821117610be157604052565b90601f8019910116810190811067ffffffffffffffff821117610be157604052565b67ffffffffffffffff8111610be157601f01601f191660200190565b90816020910312610235575162ffffff811681036102355790565b90816020910312610235575180151581036102355790565b51906001600160801b038216820361023557565b51906001600160a01b038216820361023557565b91905f928151820190602082019160208482031261023557602084015167ffffffffffffffff9485821161023557019283916101209485910312610235576040519484860186811082821117610be157604052602083015190811161023557820181603f8201121561023557602081015190610d2582610c33565b92610d336040519485610c11565b8284526040838301011161023557815f926040602093018386015e830101528452604081015190600282101561023557602085019182526060810151916001600160781b03831683036102355760408601928352610d9360808301610c82565b60608701908152610da660a08401610c96565b9060808801918252610dba60c08501610c96565b60a0890152610dcb60e08501610c96565b9160c0890192835261010090610df489610de6848901610c82565b9760e08d0198895201610c82565b918a019182526040516303aa30b960e11b8152946020866004817f00000000000000000000000000000000000000000000000000000000000000006001600160a01b03165afa958615610f87575f96610fa6575b5090610144918b60206040519c8d92637cef7e9160e01b8452826004850152519060248401528051809681940152016101648d015e5f610164848d01015251926002841015610f925760448b019390935296516001600160781b031660648a015291516001600160801b0390811660848a015295516001600160a01b0390811660a48a015260a08a0151811660c48a01529251831660e48901529351851661010488015292519093166101248601526020928592601f01601f1916830183900361016401918391165afa918215610f87575f92610f53575b50149081610f3c575b50610f3057565b630b135d3f60e11b9150565b60a001516001600160a01b0316301490505f610f29565b9091506020813d602011610f7f575b81610f6f60209383610c11565b810103126102355751905f610f20565b3d9150610f62565b6040513d5f823e3d90fd5b634e487b7160e01b5f52602160045260245ffd5b919095506020823d602011610fdf575b81610fc360209383610c11565b8101031261023557610fd761014492610c96565b959091610e48565b3d9150610fb6565b67ffffffffffffffff8111610be15760051b60200190565b5f54811015611032575f80527f290decd9548b62a8d60345a988386fc84ba6bc95484008f6362f93160ef3e56301905f90565b634e487b7160e01b5f52603260045260245ffd5b3d15611070573d9061105782610c33565b916110656040519384610c11565b82523d5f602084013e565b606090565b5f8061109d9260018060a01b03169360208151910182865af1611096611046565b9083611221565b80519081151591826110cb575b50506110b35750565b60249060405190635274afe760e01b82526004820152fd5b6110de9250602080918301019101610c6a565b155f806110aa565b805f52600160205260405f2054155f1461114c575f5468010000000000000000811015610be1576111366111208260018594015f55610fff565b819391549060031b91821b915f19901b19161790565b90555f54905f52600160205260405f2055600190565b505f90565b5f81815260016020526040902054801561121b575f1990808201818111611207575f5490838201918211611207578181036111d3575b5050505f5480156111bf5781019061119e82610fff565b909182549160031b1b191690555f555f5260016020525f6040812055600190565b634e487b7160e01b5f52603160045260245ffd5b6111f16111e261112093610fff565b90549060031b1c928392610fff565b90555f52600160205260405f20555f8080611187565b634e487b7160e01b5f52601160045260245ffd5b50505f90565b90611248575080511561123657805190602001fd5b604051630a12f52160e11b8152600490fd5b8151158061127b575b611259575090565b604051639996b31560e01b81526001600160a01b039091166004820152602490fd5b50803b1561125156fe30fffea264697066735822122019d970029120ce6a9d1745acb6b9a4b4bfe820b60b92752db1e68ffdc1356b6564736f6c63430008190033","linkReferences":{}},"methodIdentifiers":{"COLLATERAL()":"24bbab8b","USDE()":"42de081b","approveUSDeMinter()":"e854535e","isValidSignature(bytes32,bytes)":"1626ba7e","requestIds(uint256,uint256)":"4383ee3d","requestIdsLength()":"45a67f51","triggerBurn(address)":"e9e17920","triggerClaim(address)":"4bf20e20","triggerInstantClaim()":"71f16aad","triggerWithdrawal()":"041e0185"},"id":132}